{
	"schemaVersion": "2.0.0",
	"contractName": "TestLibBytes",
	"compilerOutput": {
		"abi": [
			{
				"constant": true,
				"inputs": [
					{
						"name": "lhs",
						"type": "bytes"
					},
					{
						"name": "rhs",
						"type": "bytes"
					}
				],
				"name": "publicAreBytesEqual",
				"outputs": [
					{
						"name": "equal",
						"type": "bool"
					}
				],
				"payable": false,
				"stateMutability": "pure",
				"type": "function"
			},
			{
				"constant": true,
				"inputs": [
					{
						"name": "b",
						"type": "bytes"
					}
				],
				"name": "publicPopAddress",
				"outputs": [
					{
						"name": "",
						"type": "bytes"
					},
					{
						"name": "result",
						"type": "address"
					}
				],
				"payable": false,
				"stateMutability": "pure",
				"type": "function"
			},
			{
				"constant": true,
				"inputs": [
					{
						"name": "b",
						"type": "bytes"
					},
					{
						"name": "index",
						"type": "uint256"
					}
				],
				"name": "publicReadBytes",
				"outputs": [
					{
						"name": "result",
						"type": "bytes"
					}
				],
				"payable": false,
				"stateMutability": "pure",
				"type": "function"
			},
			{
				"constant": true,
				"inputs": [
					{
						"name": "b",
						"type": "bytes"
					},
					{
						"name": "index",
						"type": "uint256"
					},
					{
						"name": "input",
						"type": "address"
					}
				],
				"name": "publicWriteAddress",
				"outputs": [
					{
						"name": "",
						"type": "bytes"
					}
				],
				"payable": false,
				"stateMutability": "pure",
				"type": "function"
			},
			{
				"constant": true,
				"inputs": [
					{
						"name": "b",
						"type": "bytes"
					}
				],
				"name": "publicReadFirst4",
				"outputs": [
					{
						"name": "result",
						"type": "bytes4"
					}
				],
				"payable": false,
				"stateMutability": "pure",
				"type": "function"
			},
			{
				"constant": true,
				"inputs": [
					{
						"name": "b",
						"type": "bytes"
					}
				],
				"name": "publicPopByte",
				"outputs": [
					{
						"name": "",
						"type": "bytes"
					},
					{
						"name": "result",
						"type": "bytes1"
					}
				],
				"payable": false,
				"stateMutability": "pure",
				"type": "function"
			},
			{
				"constant": true,
				"inputs": [
					{
						"name": "b",
						"type": "bytes"
					},
					{
						"name": "index",
						"type": "uint256"
					},
					{
						"name": "input",
						"type": "bytes"
					}
				],
				"name": "publicWriteBytes",
				"outputs": [
					{
						"name": "",
						"type": "bytes"
					}
				],
				"payable": false,
				"stateMutability": "pure",
				"type": "function"
			},
			{
				"constant": true,
				"inputs": [
					{
						"name": "b",
						"type": "bytes"
					},
					{
						"name": "index",
						"type": "uint256"
					}
				],
				"name": "publicReadAddress",
				"outputs": [
					{
						"name": "result",
						"type": "address"
					}
				],
				"payable": false,
				"stateMutability": "pure",
				"type": "function"
			},
			{
				"constant": true,
				"inputs": [
					{
						"name": "b",
						"type": "bytes"
					},
					{
						"name": "index",
						"type": "uint256"
					},
					{
						"name": "input",
						"type": "bytes32"
					}
				],
				"name": "publicWriteBytes32",
				"outputs": [
					{
						"name": "",
						"type": "bytes"
					}
				],
				"payable": false,
				"stateMutability": "pure",
				"type": "function"
			},
			{
				"constant": true,
				"inputs": [
					{
						"name": "b",
						"type": "bytes"
					},
					{
						"name": "index",
						"type": "uint256"
					},
					{
						"name": "input",
						"type": "uint256"
					}
				],
				"name": "publicWriteUint256",
				"outputs": [
					{
						"name": "",
						"type": "bytes"
					}
				],
				"payable": false,
				"stateMutability": "pure",
				"type": "function"
			},
			{
				"constant": true,
				"inputs": [
					{
						"name": "b",
						"type": "bytes"
					},
					{
						"name": "index",
						"type": "uint256"
					}
				],
				"name": "publicReadBytes32",
				"outputs": [
					{
						"name": "result",
						"type": "bytes32"
					}
				],
				"payable": false,
				"stateMutability": "pure",
				"type": "function"
			},
			{
				"constant": true,
				"inputs": [
					{
						"name": "b",
						"type": "bytes"
					},
					{
						"name": "index",
						"type": "uint256"
					}
				],
				"name": "publicReadUint256",
				"outputs": [
					{
						"name": "result",
						"type": "uint256"
					}
				],
				"payable": false,
				"stateMutability": "pure",
				"type": "function"
			}
		],
		"evm": {
			"bytecode": {
				"linkReferences": {},
				"object": "0x608060405234801561001057600080fd5b50610daa806100206000396000f3006080604052600436106100a05763ffffffff60e060020a6000350416630945c63b81146100a557806329f00d5c146100db57806335997eaf146101095780633f2a25ec14610136578063595fe547146101565780637356f5f3146101835780637d0d772f146101b157806382e2fa24146101d157806384f87758146101fe578063b79650a41461021e578063be766f1b1461023e578063e3a85ce41461026b575b600080fd5b3480156100b157600080fd5b506100c56100c03660046109c4565b61028b565b6040516100d29190610c13565b60405180910390f35b3480156100e757600080fd5b506100fb6100f6366004610988565b6102a0565b6040516100d2929190610c4e565b34801561011557600080fd5b50610129610124366004610a2b565b6102b4565b6040516100d29190610c3d565b34801561014257600080fd5b50610129610151366004610a71565b6102c0565b34801561016257600080fd5b50610176610171366004610988565b6102d7565b6040516100d29190610c2f565b34801561018f57600080fd5b506101a361019e366004610988565b6102e2565b6040516100d2929190610c6e565b3480156101bd57600080fd5b506101296101cc366004610b2d565b6102ef565b3480156101dd57600080fd5b506101f16101ec366004610a2b565b6102fc565b6040516100d29190610c05565b34801561020a57600080fd5b50610129610219366004610ad4565b610308565b34801561022a57600080fd5b50610129610239366004610ad4565b610315565b34801561024a57600080fd5b5061025e610259366004610a2b565b610322565b6040516100d29190610c21565b34801561027757600080fd5b5061025e610286366004610a2b565b61032e565b6000610297838361033a565b90505b92915050565b606060006102ad83610381565b9293915050565b6060610297838361040d565b60606102cd8484846104e5565b50825b9392505050565b600061029a82610566565b606060006102ad836105d5565b60606102cd84848461065f565b600061029783836106f3565b60606102cd84848461076f565b60606102cd8484846107df565b600061029783836107ea565b60006102978383610322565b60006020601f8451010460018101905060005b818110156103795760208102858101519085015180821494508461036f578392505b505060010161034d565b505092915050565b6000601482511015606060405190810160405280602b8152602001600080516020610d51833981519152815260200160a960020a6a38bab0b6103a3790191817028152509015156103f15760405160e560020a62461bcd0281526004016103e89190610c3d565b60405180910390fd5b506104008260148451036106f3565b8251601319019092525090565b6060600061041b8484610322565b905060208301925080830184511015606060405190810160405280602b8152602001600080516020610d51833981519152815260200160a960020a6a38bab0b6103a3790199917028152509015156104895760405160e560020a62461bcd0281526004016103e89190610c3d565b50806040519080825280601f01601f1916602001820160405280156104b8578160200160208202803883390190505b5091506104de6104c78361085d565b602001846104d48761085d565b0160200183610860565b5092915050565b8160140183511015606060405190810160405280602b8152602001600080516020610d51833981519152815260200160a960020a6a38bab0b6103a37901918170281525090151561054c5760405160e560020a62461bcd0281526004016103e89190610c3d565b5091016014018051600160a060020a031916919091189052565b6000600482511015606060405190810160405280602a8152602001600080516020610d51833981519152815260200160b160020a6938bab0b6103a37901a17028152509015156105cc5760405160e560020a62461bcd0281526004016103e89190610c3d565b50506020015190565b805160408051808201909152601e81527f4c656e677468206d7573742062652067726561746572207468616e20302e0000602082015260009182106106305760405160e560020a62461bcd0281526004016103e89190610c3d565b5081518290600019810190811061064357fe5b01602001518251600019019092525060f860020a908190040290565b8051826020010183511015606060405190810160405280602b8152602001600080516020610d51833981519152815260200160a960020a6a38bab0b6103a3790199917028152509015156106c95760405160e560020a62461bcd0281526004016103e89190610c3d565b506106ee826106d78561085d565b016020016106e48361085d565b8351602001610860565b505050565b60008160140183511015606060405190810160405280602b8152602001600080516020610d51833981519152815260200160a960020a6a38bab0b6103a37901918170281525090151561075c5760405160e560020a62461bcd0281526004016103e89190610c3d565b50500160140151600160a060020a031690565b8160200183511015606060405190810160405280602b8152602001600080516020610d51833981519152815260200160a960020a6a38bab0b6103a3790199917028152509015156107d65760405160e560020a62461bcd0281526004016103e89190610c3d565b50910160200152565b6106ee83838361076f565b60008160200183511015606060405190810160405280602b8152602001600080516020610d51833981519152815260200160a960020a6a38bab0b6103a3790199917028152509015156108535760405160e560020a62461bcd0281526004016103e89190610c3d565b5050016020015190565b90565b602081101561088a576001816020036101000a0380198351168185511680821786525050506106ee565b82821415610897576106ee565b828211156108dd5760208104602082039150818301828501815160005b848110156108d25786518852602097880197909601956001016108b4565b509052506106ee9050565b60208104602082039150818301828501845160005b848110156109115783518352601f1993840193909201916001016108f2565b508652505050505050565b60006102d08235610cdf565b60006102d0823561085d565b6000601f8201831361094557600080fd5b813561095861095382610cb4565b610c8e565b9150808252602083016020830185838301111561097457600080fd5b61097f838284610d0a565b50505092915050565b60006020828403121561099a57600080fd5b81356001604060020a038111156109b057600080fd5b6109bc84828501610934565b949350505050565b600080604083850312156109d757600080fd5b82356001604060020a038111156109ed57600080fd5b6109f985828601610934565b92505060208301356001604060020a03811115610a1557600080fd5b610a2185828601610934565b9150509250929050565b60008060408385031215610a3e57600080fd5b82356001604060020a03811115610a5457600080fd5b610a6085828601610934565b9250506020610a2185828601610928565b600080600060608486031215610a8657600080fd5b83356001604060020a03811115610a9c57600080fd5b610aa886828701610934565b9350506020610ab986828701610928565b9250506040610aca8682870161091c565b9150509250925092565b600080600060608486031215610ae957600080fd5b83356001604060020a03811115610aff57600080fd5b610b0b86828701610934565b9350506020610b1c86828701610928565b9250506040610aca86828701610928565b600080600060608486031215610b4257600080fd5b83356001604060020a03811115610b5857600080fd5b610b6486828701610934565b9350506020610b7586828701610928565b92505060408401356001604060020a03811115610b9157600080fd5b610aca86828701610934565b610ba681610cdf565b82525050565b610ba681610ceb565b610ba681610cf0565b610ba68161085d565b610ba681610cfd565b6000610bdb82610cdb565b808452610bef816020860160208601610d16565b610bf881610d46565b9093016020019392505050565b6020810161029a8284610b9d565b6020810161029a8284610bac565b6020810161029a8284610bbe565b6020810161029a8284610bc7565b602080825281016102d08184610bd0565b60408082528101610c5f8185610bd0565b90506102d06020830184610b9d565b60408082528101610c7f8185610bd0565b90506102d06020830184610bb5565b6040518181016001604060020a0381118282101715610cac57600080fd5b604052919050565b60006001604060020a03821115610cca57600080fd5b506020601f91909101601f19160190565b5190565b600160a060020a031690565b151590565b600160f860020a03191690565b600160e060020a03191690565b82818337506000910152565b60005b83811015610d31578181015183820152602001610d19565b83811115610d40576000848401525b50505050565b601f01601f19169056004c656e677468206d7573742062652067726561746572207468616e206f722065a265627a7a723058201c837115e20eac293b7065817997f1cd9d5a619a1c167b5cd1b08d05e52b26c76c6578706572696d656e74616cf50037",
				"opcodes": "PUSH1 0x80 PUSH1 0x40 MSTORE CALLVALUE DUP1 ISZERO PUSH2 0x10 JUMPI PUSH1 0x0 DUP1 REVERT JUMPDEST POP PUSH2 0xDAA DUP1 PUSH2 0x20 PUSH1 0x0 CODECOPY PUSH1 0x0 RETURN STOP PUSH1 0x80 PUSH1 0x40 MSTORE PUSH1 0x4 CALLDATASIZE LT PUSH2 0xA0 JUMPI PUSH4 0xFFFFFFFF PUSH1 0xE0 PUSH1 0x2 EXP PUSH1 0x0 CALLDATALOAD DIV AND PUSH4 0x945C63B DUP2 EQ PUSH2 0xA5 JUMPI DUP1 PUSH4 0x29F00D5C EQ PUSH2 0xDB JUMPI DUP1 PUSH4 0x35997EAF EQ PUSH2 0x109 JUMPI DUP1 PUSH4 0x3F2A25EC EQ PUSH2 0x136 JUMPI DUP1 PUSH4 0x595FE547 EQ PUSH2 0x156 JUMPI DUP1 PUSH4 0x7356F5F3 EQ PUSH2 0x183 JUMPI DUP1 PUSH4 0x7D0D772F EQ PUSH2 0x1B1 JUMPI DUP1 PUSH4 0x82E2FA24 EQ PUSH2 0x1D1 JUMPI DUP1 PUSH4 0x84F87758 EQ PUSH2 0x1FE JUMPI DUP1 PUSH4 0xB79650A4 EQ PUSH2 0x21E JUMPI DUP1 PUSH4 0xBE766F1B EQ PUSH2 0x23E JUMPI DUP1 PUSH4 0xE3A85CE4 EQ PUSH2 0x26B JUMPI JUMPDEST PUSH1 0x0 DUP1 REVERT JUMPDEST CALLVALUE DUP1 ISZERO PUSH2 0xB1 JUMPI PUSH1 0x0 DUP1 REVERT JUMPDEST POP PUSH2 0xC5 PUSH2 0xC0 CALLDATASIZE PUSH1 0x4 PUSH2 0x9C4 JUMP JUMPDEST PUSH2 0x28B JUMP JUMPDEST PUSH1 0x40 MLOAD PUSH2 0xD2 SWAP2 SWAP1 PUSH2 0xC13 JUMP JUMPDEST PUSH1 0x40 MLOAD DUP1 SWAP2 SUB SWAP1 RETURN JUMPDEST CALLVALUE DUP1 ISZERO PUSH2 0xE7 JUMPI PUSH1 0x0 DUP1 REVERT JUMPDEST POP PUSH2 0xFB PUSH2 0xF6 CALLDATASIZE PUSH1 0x4 PUSH2 0x988 JUMP JUMPDEST PUSH2 0x2A0 JUMP JUMPDEST PUSH1 0x40 MLOAD PUSH2 0xD2 SWAP3 SWAP2 SWAP1 PUSH2 0xC4E JUMP JUMPDEST CALLVALUE DUP1 ISZERO PUSH2 0x115 JUMPI PUSH1 0x0 DUP1 REVERT JUMPDEST POP PUSH2 0x129 PUSH2 0x124 CALLDATASIZE PUSH1 0x4 PUSH2 0xA2B JUMP JUMPDEST PUSH2 0x2B4 JUMP JUMPDEST PUSH1 0x40 MLOAD PUSH2 0xD2 SWAP2 SWAP1 PUSH2 0xC3D JUMP JUMPDEST CALLVALUE DUP1 ISZERO PUSH2 0x142 JUMPI PUSH1 0x0 DUP1 REVERT JUMPDEST POP PUSH2 0x129 PUSH2 0x151 CALLDATASIZE PUSH1 0x4 PUSH2 0xA71 JUMP JUMPDEST PUSH2 0x2C0 JUMP JUMPDEST CALLVALUE DUP1 ISZERO PUSH2 0x162 JUMPI PUSH1 0x0 DUP1 REVERT JUMPDEST POP PUSH2 0x176 PUSH2 0x171 CALLDATASIZE PUSH1 0x4 PUSH2 0x988 JUMP JUMPDEST PUSH2 0x2D7 JUMP JUMPDEST PUSH1 0x40 MLOAD PUSH2 0xD2 SWAP2 SWAP1 PUSH2 0xC2F JUMP JUMPDEST CALLVALUE DUP1 ISZERO PUSH2 0x18F JUMPI PUSH1 0x0 DUP1 REVERT JUMPDEST POP PUSH2 0x1A3 PUSH2 0x19E CALLDATASIZE PUSH1 0x4 PUSH2 0x988 JUMP JUMPDEST PUSH2 0x2E2 JUMP JUMPDEST PUSH1 0x40 MLOAD PUSH2 0xD2 SWAP3 SWAP2 SWAP1 PUSH2 0xC6E JUMP JUMPDEST CALLVALUE DUP1 ISZERO PUSH2 0x1BD JUMPI PUSH1 0x0 DUP1 REVERT JUMPDEST POP PUSH2 0x129 PUSH2 0x1CC CALLDATASIZE PUSH1 0x4 PUSH2 0xB2D JUMP JUMPDEST PUSH2 0x2EF JUMP JUMPDEST CALLVALUE DUP1 ISZERO PUSH2 0x1DD JUMPI PUSH1 0x0 DUP1 REVERT JUMPDEST POP PUSH2 0x1F1 PUSH2 0x1EC CALLDATASIZE PUSH1 0x4 PUSH2 0xA2B JUMP JUMPDEST PUSH2 0x2FC JUMP JUMPDEST PUSH1 0x40 MLOAD PUSH2 0xD2 SWAP2 SWAP1 PUSH2 0xC05 JUMP JUMPDEST CALLVALUE DUP1 ISZERO PUSH2 0x20A JUMPI PUSH1 0x0 DUP1 REVERT JUMPDEST POP PUSH2 0x129 PUSH2 0x219 CALLDATASIZE PUSH1 0x4 PUSH2 0xAD4 JUMP JUMPDEST PUSH2 0x308 JUMP JUMPDEST CALLVALUE DUP1 ISZERO PUSH2 0x22A JUMPI PUSH1 0x0 DUP1 REVERT JUMPDEST POP PUSH2 0x129 PUSH2 0x239 CALLDATASIZE PUSH1 0x4 PUSH2 0xAD4 JUMP JUMPDEST PUSH2 0x315 JUMP JUMPDEST CALLVALUE DUP1 ISZERO PUSH2 0x24A JUMPI PUSH1 0x0 DUP1 REVERT JUMPDEST POP PUSH2 0x25E PUSH2 0x259 CALLDATASIZE PUSH1 0x4 PUSH2 0xA2B JUMP JUMPDEST PUSH2 0x322 JUMP JUMPDEST PUSH1 0x40 MLOAD PUSH2 0xD2 SWAP2 SWAP1 PUSH2 0xC21 JUMP JUMPDEST CALLVALUE DUP1 ISZERO PUSH2 0x277 JUMPI PUSH1 0x0 DUP1 REVERT JUMPDEST POP PUSH2 0x25E PUSH2 0x286 CALLDATASIZE PUSH1 0x4 PUSH2 0xA2B JUMP JUMPDEST PUSH2 0x32E JUMP JUMPDEST PUSH1 0x0 PUSH2 0x297 DUP4 DUP4 PUSH2 0x33A JUMP JUMPDEST SWAP1 POP JUMPDEST SWAP3 SWAP2 POP POP JUMP JUMPDEST PUSH1 0x60 PUSH1 0x0 PUSH2 0x2AD DUP4 PUSH2 0x381 JUMP JUMPDEST SWAP3 SWAP4 SWAP2 POP POP JUMP JUMPDEST PUSH1 0x60 PUSH2 0x297 DUP4 DUP4 PUSH2 0x40D JUMP JUMPDEST PUSH1 0x60 PUSH2 0x2CD DUP5 DUP5 DUP5 PUSH2 0x4E5 JUMP JUMPDEST POP DUP3 JUMPDEST SWAP4 SWAP3 POP POP POP JUMP JUMPDEST PUSH1 0x0 PUSH2 0x29A DUP3 PUSH2 0x566 JUMP JUMPDEST PUSH1 0x60 PUSH1 0x0 PUSH2 0x2AD DUP4 PUSH2 0x5D5 JUMP JUMPDEST PUSH1 0x60 PUSH2 0x2CD DUP5 DUP5 DUP5 PUSH2 0x65F JUMP JUMPDEST PUSH1 0x0 PUSH2 0x297 DUP4 DUP4 PUSH2 0x6F3 JUMP JUMPDEST PUSH1 0x60 PUSH2 0x2CD DUP5 DUP5 DUP5 PUSH2 0x76F JUMP JUMPDEST PUSH1 0x60 PUSH2 0x2CD DUP5 DUP5 DUP5 PUSH2 0x7DF JUMP JUMPDEST PUSH1 0x0 PUSH2 0x297 DUP4 DUP4 PUSH2 0x7EA JUMP JUMPDEST PUSH1 0x0 PUSH2 0x297 DUP4 DUP4 PUSH2 0x322 JUMP JUMPDEST PUSH1 0x0 PUSH1 0x20 PUSH1 0x1F DUP5 MLOAD ADD DIV PUSH1 0x1 DUP2 ADD SWAP1 POP PUSH1 0x0 JUMPDEST DUP2 DUP2 LT ISZERO PUSH2 0x379 JUMPI PUSH1 0x20 DUP2 MUL DUP6 DUP2 ADD MLOAD SWAP1 DUP6 ADD MLOAD DUP1 DUP3 EQ SWAP5 POP DUP5 PUSH2 0x36F JUMPI DUP4 SWAP3 POP JUMPDEST POP POP PUSH1 0x1 ADD PUSH2 0x34D JUMP JUMPDEST POP POP SWAP3 SWAP2 POP POP JUMP JUMPDEST PUSH1 0x0 PUSH1 0x14 DUP3 MLOAD LT ISZERO PUSH1 0x60 PUSH1 0x40 MLOAD SWAP1 DUP2 ADD PUSH1 0x40 MSTORE DUP1 PUSH1 0x2B DUP2 MSTORE PUSH1 0x20 ADD PUSH1 0x0 DUP1 MLOAD PUSH1 0x20 PUSH2 0xD51 DUP4 CODECOPY DUP2 MLOAD SWAP2 MSTORE DUP2 MSTORE PUSH1 0x20 ADD PUSH1 0xA9 PUSH1 0x2 EXP PUSH11 0x38BAB0B6103A3790191817 MUL DUP2 MSTORE POP SWAP1 ISZERO ISZERO PUSH2 0x3F1 JUMPI PUSH1 0x40 MLOAD PUSH1 0xE5 PUSH1 0x2 EXP PUSH3 0x461BCD MUL DUP2 MSTORE PUSH1 0x4 ADD PUSH2 0x3E8 SWAP2 SWAP1 PUSH2 0xC3D JUMP JUMPDEST PUSH1 0x40 MLOAD DUP1 SWAP2 SUB SWAP1 REVERT JUMPDEST POP PUSH2 0x400 DUP3 PUSH1 0x14 DUP5 MLOAD SUB PUSH2 0x6F3 JUMP JUMPDEST DUP3 MLOAD PUSH1 0x13 NOT ADD SWAP1 SWAP3 MSTORE POP SWAP1 JUMP JUMPDEST PUSH1 0x60 PUSH1 0x0 PUSH2 0x41B DUP5 DUP5 PUSH2 0x322 JUMP JUMPDEST SWAP1 POP PUSH1 0x20 DUP4 ADD SWAP3 POP DUP1 DUP4 ADD DUP5 MLOAD LT ISZERO PUSH1 0x60 PUSH1 0x40 MLOAD SWAP1 DUP2 ADD PUSH1 0x40 MSTORE DUP1 PUSH1 0x2B DUP2 MSTORE PUSH1 0x20 ADD PUSH1 0x0 DUP1 MLOAD PUSH1 0x20 PUSH2 0xD51 DUP4 CODECOPY DUP2 MLOAD SWAP2 MSTORE DUP2 MSTORE PUSH1 0x20 ADD PUSH1 0xA9 PUSH1 0x2 EXP PUSH11 0x38BAB0B6103A3790199917 MUL DUP2 MSTORE POP SWAP1 ISZERO ISZERO PUSH2 0x489 JUMPI PUSH1 0x40 MLOAD PUSH1 0xE5 PUSH1 0x2 EXP PUSH3 0x461BCD MUL DUP2 MSTORE PUSH1 0x4 ADD PUSH2 0x3E8 SWAP2 SWAP1 PUSH2 0xC3D JUMP JUMPDEST POP DUP1 PUSH1 0x40 MLOAD SWAP1 DUP1 DUP3 MSTORE DUP1 PUSH1 0x1F ADD PUSH1 0x1F NOT AND PUSH1 0x20 ADD DUP3 ADD PUSH1 0x40 MSTORE DUP1 ISZERO PUSH2 0x4B8 JUMPI DUP2 PUSH1 0x20 ADD PUSH1 0x20 DUP3 MUL DUP1 CODESIZE DUP4 CODECOPY ADD SWAP1 POP JUMPDEST POP SWAP2 POP PUSH2 0x4DE PUSH2 0x4C7 DUP4 PUSH2 0x85D JUMP JUMPDEST PUSH1 0x20 ADD DUP5 PUSH2 0x4D4 DUP8 PUSH2 0x85D JUMP JUMPDEST ADD PUSH1 0x20 ADD DUP4 PUSH2 0x860 JUMP JUMPDEST POP SWAP3 SWAP2 POP POP JUMP JUMPDEST DUP2 PUSH1 0x14 ADD DUP4 MLOAD LT ISZERO PUSH1 0x60 PUSH1 0x40 MLOAD SWAP1 DUP2 ADD PUSH1 0x40 MSTORE DUP1 PUSH1 0x2B DUP2 MSTORE PUSH1 0x20 ADD PUSH1 0x0 DUP1 MLOAD PUSH1 0x20 PUSH2 0xD51 DUP4 CODECOPY DUP2 MLOAD SWAP2 MSTORE DUP2 MSTORE PUSH1 0x20 ADD PUSH1 0xA9 PUSH1 0x2 EXP PUSH11 0x38BAB0B6103A3790191817 MUL DUP2 MSTORE POP SWAP1 ISZERO ISZERO PUSH2 0x54C JUMPI PUSH1 0x40 MLOAD PUSH1 0xE5 PUSH1 0x2 EXP PUSH3 0x461BCD MUL DUP2 MSTORE PUSH1 0x4 ADD PUSH2 0x3E8 SWAP2 SWAP1 PUSH2 0xC3D JUMP JUMPDEST POP SWAP2 ADD PUSH1 0x14 ADD DUP1 MLOAD PUSH1 0x1 PUSH1 0xA0 PUSH1 0x2 EXP SUB NOT AND SWAP2 SWAP1 SWAP2 XOR SWAP1 MSTORE JUMP JUMPDEST PUSH1 0x0 PUSH1 0x4 DUP3 MLOAD LT ISZERO PUSH1 0x60 PUSH1 0x40 MLOAD SWAP1 DUP2 ADD PUSH1 0x40 MSTORE DUP1 PUSH1 0x2A DUP2 MSTORE PUSH1 0x20 ADD PUSH1 0x0 DUP1 MLOAD PUSH1 0x20 PUSH2 0xD51 DUP4 CODECOPY DUP2 MLOAD SWAP2 MSTORE DUP2 MSTORE PUSH1 0x20 ADD PUSH1 0xB1 PUSH1 0x2 EXP PUSH10 0x38BAB0B6103A37901A17 MUL DUP2 MSTORE POP SWAP1 ISZERO ISZERO PUSH2 0x5CC JUMPI PUSH1 0x40 MLOAD PUSH1 0xE5 PUSH1 0x2 EXP PUSH3 0x461BCD MUL DUP2 MSTORE PUSH1 0x4 ADD PUSH2 0x3E8 SWAP2 SWAP1 PUSH2 0xC3D JUMP JUMPDEST POP POP PUSH1 0x20 ADD MLOAD SWAP1 JUMP JUMPDEST DUP1 MLOAD PUSH1 0x40 DUP1 MLOAD DUP1 DUP3 ADD SWAP1 SWAP2 MSTORE PUSH1 0x1E DUP2 MSTORE PUSH32 0x4C656E677468206D7573742062652067726561746572207468616E20302E0000 PUSH1 0x20 DUP3 ADD MSTORE PUSH1 0x0 SWAP2 DUP3 LT PUSH2 0x630 JUMPI PUSH1 0x40 MLOAD PUSH1 0xE5 PUSH1 0x2 EXP PUSH3 0x461BCD MUL DUP2 MSTORE PUSH1 0x4 ADD PUSH2 0x3E8 SWAP2 SWAP1 PUSH2 0xC3D JUMP JUMPDEST POP DUP2 MLOAD DUP3 SWAP1 PUSH1 0x0 NOT DUP2 ADD SWAP1 DUP2 LT PUSH2 0x643 JUMPI INVALID JUMPDEST ADD PUSH1 0x20 ADD MLOAD DUP3 MLOAD PUSH1 0x0 NOT ADD SWAP1 SWAP3 MSTORE POP PUSH1 0xF8 PUSH1 0x2 EXP SWAP1 DUP2 SWAP1 DIV MUL SWAP1 JUMP JUMPDEST DUP1 MLOAD DUP3 PUSH1 0x20 ADD ADD DUP4 MLOAD LT ISZERO PUSH1 0x60 PUSH1 0x40 MLOAD SWAP1 DUP2 ADD PUSH1 0x40 MSTORE DUP1 PUSH1 0x2B DUP2 MSTORE PUSH1 0x20 ADD PUSH1 0x0 DUP1 MLOAD PUSH1 0x20 PUSH2 0xD51 DUP4 CODECOPY DUP2 MLOAD SWAP2 MSTORE DUP2 MSTORE PUSH1 0x20 ADD PUSH1 0xA9 PUSH1 0x2 EXP PUSH11 0x38BAB0B6103A3790199917 MUL DUP2 MSTORE POP SWAP1 ISZERO ISZERO PUSH2 0x6C9 JUMPI PUSH1 0x40 MLOAD PUSH1 0xE5 PUSH1 0x2 EXP PUSH3 0x461BCD MUL DUP2 MSTORE PUSH1 0x4 ADD PUSH2 0x3E8 SWAP2 SWAP1 PUSH2 0xC3D JUMP JUMPDEST POP PUSH2 0x6EE DUP3 PUSH2 0x6D7 DUP6 PUSH2 0x85D JUMP JUMPDEST ADD PUSH1 0x20 ADD PUSH2 0x6E4 DUP4 PUSH2 0x85D JUMP JUMPDEST DUP4 MLOAD PUSH1 0x20 ADD PUSH2 0x860 JUMP JUMPDEST POP POP POP JUMP JUMPDEST PUSH1 0x0 DUP2 PUSH1 0x14 ADD DUP4 MLOAD LT ISZERO PUSH1 0x60 PUSH1 0x40 MLOAD SWAP1 DUP2 ADD PUSH1 0x40 MSTORE DUP1 PUSH1 0x2B DUP2 MSTORE PUSH1 0x20 ADD PUSH1 0x0 DUP1 MLOAD PUSH1 0x20 PUSH2 0xD51 DUP4 CODECOPY DUP2 MLOAD SWAP2 MSTORE DUP2 MSTORE PUSH1 0x20 ADD PUSH1 0xA9 PUSH1 0x2 EXP PUSH11 0x38BAB0B6103A3790191817 MUL DUP2 MSTORE POP SWAP1 ISZERO ISZERO PUSH2 0x75C JUMPI PUSH1 0x40 MLOAD PUSH1 0xE5 PUSH1 0x2 EXP PUSH3 0x461BCD MUL DUP2 MSTORE PUSH1 0x4 ADD PUSH2 0x3E8 SWAP2 SWAP1 PUSH2 0xC3D JUMP JUMPDEST POP POP ADD PUSH1 0x14 ADD MLOAD PUSH1 0x1 PUSH1 0xA0 PUSH1 0x2 EXP SUB AND SWAP1 JUMP JUMPDEST DUP2 PUSH1 0x20 ADD DUP4 MLOAD LT ISZERO PUSH1 0x60 PUSH1 0x40 MLOAD SWAP1 DUP2 ADD PUSH1 0x40 MSTORE DUP1 PUSH1 0x2B DUP2 MSTORE PUSH1 0x20 ADD PUSH1 0x0 DUP1 MLOAD PUSH1 0x20 PUSH2 0xD51 DUP4 CODECOPY DUP2 MLOAD SWAP2 MSTORE DUP2 MSTORE PUSH1 0x20 ADD PUSH1 0xA9 PUSH1 0x2 EXP PUSH11 0x38BAB0B6103A3790199917 MUL DUP2 MSTORE POP SWAP1 ISZERO ISZERO PUSH2 0x7D6 JUMPI PUSH1 0x40 MLOAD PUSH1 0xE5 PUSH1 0x2 EXP PUSH3 0x461BCD MUL DUP2 MSTORE PUSH1 0x4 ADD PUSH2 0x3E8 SWAP2 SWAP1 PUSH2 0xC3D JUMP JUMPDEST POP SWAP2 ADD PUSH1 0x20 ADD MSTORE JUMP JUMPDEST PUSH2 0x6EE DUP4 DUP4 DUP4 PUSH2 0x76F JUMP JUMPDEST PUSH1 0x0 DUP2 PUSH1 0x20 ADD DUP4 MLOAD LT ISZERO PUSH1 0x60 PUSH1 0x40 MLOAD SWAP1 DUP2 ADD PUSH1 0x40 MSTORE DUP1 PUSH1 0x2B DUP2 MSTORE PUSH1 0x20 ADD PUSH1 0x0 DUP1 MLOAD PUSH1 0x20 PUSH2 0xD51 DUP4 CODECOPY DUP2 MLOAD SWAP2 MSTORE DUP2 MSTORE PUSH1 0x20 ADD PUSH1 0xA9 PUSH1 0x2 EXP PUSH11 0x38BAB0B6103A3790199917 MUL DUP2 MSTORE POP SWAP1 ISZERO ISZERO PUSH2 0x853 JUMPI PUSH1 0x40 MLOAD PUSH1 0xE5 PUSH1 0x2 EXP PUSH3 0x461BCD MUL DUP2 MSTORE PUSH1 0x4 ADD PUSH2 0x3E8 SWAP2 SWAP1 PUSH2 0xC3D JUMP JUMPDEST POP POP ADD PUSH1 0x20 ADD MLOAD SWAP1 JUMP JUMPDEST SWAP1 JUMP JUMPDEST PUSH1 0x20 DUP2 LT ISZERO PUSH2 0x88A JUMPI PUSH1 0x1 DUP2 PUSH1 0x20 SUB PUSH2 0x100 EXP SUB DUP1 NOT DUP4 MLOAD AND DUP2 DUP6 MLOAD AND DUP1 DUP3 OR DUP7 MSTORE POP POP POP PUSH2 0x6EE JUMP JUMPDEST DUP3 DUP3 EQ ISZERO PUSH2 0x897 JUMPI PUSH2 0x6EE JUMP JUMPDEST DUP3 DUP3 GT ISZERO PUSH2 0x8DD JUMPI PUSH1 0x20 DUP2 DIV PUSH1 0x20 DUP3 SUB SWAP2 POP DUP2 DUP4 ADD DUP3 DUP6 ADD DUP2 MLOAD PUSH1 0x0 JUMPDEST DUP5 DUP2 LT ISZERO PUSH2 0x8D2 JUMPI DUP7 MLOAD DUP9 MSTORE PUSH1 0x20 SWAP8 DUP9 ADD SWAP8 SWAP1 SWAP7 ADD SWAP6 PUSH1 0x1 ADD PUSH2 0x8B4 JUMP JUMPDEST POP SWAP1 MSTORE POP PUSH2 0x6EE SWAP1 POP JUMP JUMPDEST PUSH1 0x20 DUP2 DIV PUSH1 0x20 DUP3 SUB SWAP2 POP DUP2 DUP4 ADD DUP3 DUP6 ADD DUP5 MLOAD PUSH1 0x0 JUMPDEST DUP5 DUP2 LT ISZERO PUSH2 0x911 JUMPI DUP4 MLOAD DUP4 MSTORE PUSH1 0x1F NOT SWAP4 DUP5 ADD SWAP4 SWAP1 SWAP3 ADD SWAP2 PUSH1 0x1 ADD PUSH2 0x8F2 JUMP JUMPDEST POP DUP7 MSTORE POP POP POP POP POP POP JUMP JUMPDEST PUSH1 0x0 PUSH2 0x2D0 DUP3 CALLDATALOAD PUSH2 0xCDF JUMP JUMPDEST PUSH1 0x0 PUSH2 0x2D0 DUP3 CALLDATALOAD PUSH2 0x85D JUMP JUMPDEST PUSH1 0x0 PUSH1 0x1F DUP3 ADD DUP4 SGT PUSH2 0x945 JUMPI PUSH1 0x0 DUP1 REVERT JUMPDEST DUP2 CALLDATALOAD PUSH2 0x958 PUSH2 0x953 DUP3 PUSH2 0xCB4 JUMP JUMPDEST PUSH2 0xC8E JUMP JUMPDEST SWAP2 POP DUP1 DUP3 MSTORE PUSH1 0x20 DUP4 ADD PUSH1 0x20 DUP4 ADD DUP6 DUP4 DUP4 ADD GT ISZERO PUSH2 0x974 JUMPI PUSH1 0x0 DUP1 REVERT JUMPDEST PUSH2 0x97F DUP4 DUP3 DUP5 PUSH2 0xD0A JUMP JUMPDEST POP POP POP SWAP3 SWAP2 POP POP JUMP JUMPDEST PUSH1 0x0 PUSH1 0x20 DUP3 DUP5 SUB SLT ISZERO PUSH2 0x99A JUMPI PUSH1 0x0 DUP1 REVERT JUMPDEST DUP2 CALLDATALOAD PUSH1 0x1 PUSH1 0x40 PUSH1 0x2 EXP SUB DUP2 GT ISZERO PUSH2 0x9B0 JUMPI PUSH1 0x0 DUP1 REVERT JUMPDEST PUSH2 0x9BC DUP5 DUP3 DUP6 ADD PUSH2 0x934 JUMP JUMPDEST SWAP5 SWAP4 POP POP POP POP JUMP JUMPDEST PUSH1 0x0 DUP1 PUSH1 0x40 DUP4 DUP6 SUB SLT ISZERO PUSH2 0x9D7 JUMPI PUSH1 0x0 DUP1 REVERT JUMPDEST DUP3 CALLDATALOAD PUSH1 0x1 PUSH1 0x40 PUSH1 0x2 EXP SUB DUP2 GT ISZERO PUSH2 0x9ED JUMPI PUSH1 0x0 DUP1 REVERT JUMPDEST PUSH2 0x9F9 DUP6 DUP3 DUP7 ADD PUSH2 0x934 JUMP JUMPDEST SWAP3 POP POP PUSH1 0x20 DUP4 ADD CALLDATALOAD PUSH1 0x1 PUSH1 0x40 PUSH1 0x2 EXP SUB DUP2 GT ISZERO PUSH2 0xA15 JUMPI PUSH1 0x0 DUP1 REVERT JUMPDEST PUSH2 0xA21 DUP6 DUP3 DUP7 ADD PUSH2 0x934 JUMP JUMPDEST SWAP2 POP POP SWAP3 POP SWAP3 SWAP1 POP JUMP JUMPDEST PUSH1 0x0 DUP1 PUSH1 0x40 DUP4 DUP6 SUB SLT ISZERO PUSH2 0xA3E JUMPI PUSH1 0x0 DUP1 REVERT JUMPDEST DUP3 CALLDATALOAD PUSH1 0x1 PUSH1 0x40 PUSH1 0x2 EXP SUB DUP2 GT ISZERO PUSH2 0xA54 JUMPI PUSH1 0x0 DUP1 REVERT JUMPDEST PUSH2 0xA60 DUP6 DUP3 DUP7 ADD PUSH2 0x934 JUMP JUMPDEST SWAP3 POP POP PUSH1 0x20 PUSH2 0xA21 DUP6 DUP3 DUP7 ADD PUSH2 0x928 JUMP JUMPDEST PUSH1 0x0 DUP1 PUSH1 0x0 PUSH1 0x60 DUP5 DUP7 SUB SLT ISZERO PUSH2 0xA86 JUMPI PUSH1 0x0 DUP1 REVERT JUMPDEST DUP4 CALLDATALOAD PUSH1 0x1 PUSH1 0x40 PUSH1 0x2 EXP SUB DUP2 GT ISZERO PUSH2 0xA9C JUMPI PUSH1 0x0 DUP1 REVERT JUMPDEST PUSH2 0xAA8 DUP7 DUP3 DUP8 ADD PUSH2 0x934 JUMP JUMPDEST SWAP4 POP POP PUSH1 0x20 PUSH2 0xAB9 DUP7 DUP3 DUP8 ADD PUSH2 0x928 JUMP JUMPDEST SWAP3 POP POP PUSH1 0x40 PUSH2 0xACA DUP7 DUP3 DUP8 ADD PUSH2 0x91C JUMP JUMPDEST SWAP2 POP POP SWAP3 POP SWAP3 POP SWAP3 JUMP JUMPDEST PUSH1 0x0 DUP1 PUSH1 0x0 PUSH1 0x60 DUP5 DUP7 SUB SLT ISZERO PUSH2 0xAE9 JUMPI PUSH1 0x0 DUP1 REVERT JUMPDEST DUP4 CALLDATALOAD PUSH1 0x1 PUSH1 0x40 PUSH1 0x2 EXP SUB DUP2 GT ISZERO PUSH2 0xAFF JUMPI PUSH1 0x0 DUP1 REVERT JUMPDEST PUSH2 0xB0B DUP7 DUP3 DUP8 ADD PUSH2 0x934 JUMP JUMPDEST SWAP4 POP POP PUSH1 0x20 PUSH2 0xB1C DUP7 DUP3 DUP8 ADD PUSH2 0x928 JUMP JUMPDEST SWAP3 POP POP PUSH1 0x40 PUSH2 0xACA DUP7 DUP3 DUP8 ADD PUSH2 0x928 JUMP JUMPDEST PUSH1 0x0 DUP1 PUSH1 0x0 PUSH1 0x60 DUP5 DUP7 SUB SLT ISZERO PUSH2 0xB42 JUMPI PUSH1 0x0 DUP1 REVERT JUMPDEST DUP4 CALLDATALOAD PUSH1 0x1 PUSH1 0x40 PUSH1 0x2 EXP SUB DUP2 GT ISZERO PUSH2 0xB58 JUMPI PUSH1 0x0 DUP1 REVERT JUMPDEST PUSH2 0xB64 DUP7 DUP3 DUP8 ADD PUSH2 0x934 JUMP JUMPDEST SWAP4 POP POP PUSH1 0x20 PUSH2 0xB75 DUP7 DUP3 DUP8 ADD PUSH2 0x928 JUMP JUMPDEST SWAP3 POP POP PUSH1 0x40 DUP5 ADD CALLDATALOAD PUSH1 0x1 PUSH1 0x40 PUSH1 0x2 EXP SUB DUP2 GT ISZERO PUSH2 0xB91 JUMPI PUSH1 0x0 DUP1 REVERT JUMPDEST PUSH2 0xACA DUP7 DUP3 DUP8 ADD PUSH2 0x934 JUMP JUMPDEST PUSH2 0xBA6 DUP2 PUSH2 0xCDF JUMP JUMPDEST DUP3 MSTORE POP POP JUMP JUMPDEST PUSH2 0xBA6 DUP2 PUSH2 0xCEB JUMP JUMPDEST PUSH2 0xBA6 DUP2 PUSH2 0xCF0 JUMP JUMPDEST PUSH2 0xBA6 DUP2 PUSH2 0x85D JUMP JUMPDEST PUSH2 0xBA6 DUP2 PUSH2 0xCFD JUMP JUMPDEST PUSH1 0x0 PUSH2 0xBDB DUP3 PUSH2 0xCDB JUMP JUMPDEST DUP1 DUP5 MSTORE PUSH2 0xBEF DUP2 PUSH1 0x20 DUP7 ADD PUSH1 0x20 DUP7 ADD PUSH2 0xD16 JUMP JUMPDEST PUSH2 0xBF8 DUP2 PUSH2 0xD46 JUMP JUMPDEST SWAP1 SWAP4 ADD PUSH1 0x20 ADD SWAP4 SWAP3 POP POP POP JUMP JUMPDEST PUSH1 0x20 DUP2 ADD PUSH2 0x29A DUP3 DUP5 PUSH2 0xB9D JUMP JUMPDEST PUSH1 0x20 DUP2 ADD PUSH2 0x29A DUP3 DUP5 PUSH2 0xBAC JUMP JUMPDEST PUSH1 0x20 DUP2 ADD PUSH2 0x29A DUP3 DUP5 PUSH2 0xBBE JUMP JUMPDEST PUSH1 0x20 DUP2 ADD PUSH2 0x29A DUP3 DUP5 PUSH2 0xBC7 JUMP JUMPDEST PUSH1 0x20 DUP1 DUP3 MSTORE DUP2 ADD PUSH2 0x2D0 DUP2 DUP5 PUSH2 0xBD0 JUMP JUMPDEST PUSH1 0x40 DUP1 DUP3 MSTORE DUP2 ADD PUSH2 0xC5F DUP2 DUP6 PUSH2 0xBD0 JUMP JUMPDEST SWAP1 POP PUSH2 0x2D0 PUSH1 0x20 DUP4 ADD DUP5 PUSH2 0xB9D JUMP JUMPDEST PUSH1 0x40 DUP1 DUP3 MSTORE DUP2 ADD PUSH2 0xC7F DUP2 DUP6 PUSH2 0xBD0 JUMP JUMPDEST SWAP1 POP PUSH2 0x2D0 PUSH1 0x20 DUP4 ADD DUP5 PUSH2 0xBB5 JUMP JUMPDEST PUSH1 0x40 MLOAD DUP2 DUP2 ADD PUSH1 0x1 PUSH1 0x40 PUSH1 0x2 EXP SUB DUP2 GT DUP3 DUP3 LT OR ISZERO PUSH2 0xCAC JUMPI PUSH1 0x0 DUP1 REVERT JUMPDEST PUSH1 0x40 MSTORE SWAP2 SWAP1 POP JUMP JUMPDEST PUSH1 0x0 PUSH1 0x1 PUSH1 0x40 PUSH1 0x2 EXP SUB DUP3 GT ISZERO PUSH2 0xCCA JUMPI PUSH1 0x0 DUP1 REVERT JUMPDEST POP PUSH1 0x20 PUSH1 0x1F SWAP2 SWAP1 SWAP2 ADD PUSH1 0x1F NOT AND ADD SWAP1 JUMP JUMPDEST MLOAD SWAP1 JUMP JUMPDEST PUSH1 0x1 PUSH1 0xA0 PUSH1 0x2 EXP SUB AND SWAP1 JUMP JUMPDEST ISZERO ISZERO SWAP1 JUMP JUMPDEST PUSH1 0x1 PUSH1 0xF8 PUSH1 0x2 EXP SUB NOT AND SWAP1 JUMP JUMPDEST PUSH1 0x1 PUSH1 0xE0 PUSH1 0x2 EXP SUB NOT AND SWAP1 JUMP JUMPDEST DUP3 DUP2 DUP4 CALLDATACOPY POP PUSH1 0x0 SWAP2 ADD MSTORE JUMP JUMPDEST PUSH1 0x0 JUMPDEST DUP4 DUP2 LT ISZERO PUSH2 0xD31 JUMPI DUP2 DUP2 ADD MLOAD DUP4 DUP3 ADD MSTORE PUSH1 0x20 ADD PUSH2 0xD19 JUMP JUMPDEST DUP4 DUP2 GT ISZERO PUSH2 0xD40 JUMPI PUSH1 0x0 DUP5 DUP5 ADD MSTORE JUMPDEST POP POP POP POP JUMP JUMPDEST PUSH1 0x1F ADD PUSH1 0x1F NOT AND SWAP1 JUMP STOP 0x4c PUSH6 0x6E677468206D PUSH22 0x73742062652067726561746572207468616E206F7220 PUSH6 0xA265627A7A72 ADDRESS PC KECCAK256 SHR DUP4 PUSH18 0x15E20EAC293B7065817997F1CD9D5A619A1C AND PUSH28 0x5CD1B08D05E52B26C76C6578706572696D656E74616CF50037000000 "
			}
		}
	},
	"sourceTreeHashHex": "0xaaa3bf2be3386ddee24782ff15f4bac45078975e2a00aad38ab08b44010bdf9e",
	"compiler": {
		"name": "solc",
		"version": "soljson-v0.4.24+commit.e67f0147.js",
		"settings": {
			"optimizer": {
				"enabled": true,
				"runs": 0
			},
			"outputSelection": {
				"*": {
					"*": [
						"abi",
						"evm.bytecode.object",
						"evm.bytecode.sourceMap",
						"evm.deployedBytecode.object",
						"evm.deployedBytecode.sourceMap"
					]
				}
			}
		}
	}
}