{
	"schemaVersion": "2.0.0",
	"contractName": "TestLibAssetProxyDecoder",
	"compilerOutput": {
		"abi": [
			{
				"constant": false,
				"inputs": [
					{
						"name": "target",
						"type": "address"
					}
				],
				"name": "addAuthorizedAddress",
				"outputs": [],
				"payable": false,
				"stateMutability": "nonpayable",
				"type": "function"
			},
			{
				"constant": true,
				"inputs": [
					{
						"name": "",
						"type": "uint256"
					}
				],
				"name": "authorities",
				"outputs": [
					{
						"name": "",
						"type": "address"
					}
				],
				"payable": false,
				"stateMutability": "view",
				"type": "function"
			},
			{
				"constant": false,
				"inputs": [
					{
						"name": "assetData",
						"type": "bytes[]"
					},
					{
						"name": "from",
						"type": "address[]"
					},
					{
						"name": "to",
						"type": "address[]"
					},
					{
						"name": "amounts",
						"type": "uint256[]"
					}
				],
				"name": "batchTransferFrom",
				"outputs": [],
				"payable": false,
				"stateMutability": "nonpayable",
				"type": "function"
			},
			{
				"constant": false,
				"inputs": [
					{
						"name": "target",
						"type": "address"
					}
				],
				"name": "removeAuthorizedAddress",
				"outputs": [],
				"payable": false,
				"stateMutability": "nonpayable",
				"type": "function"
			},
			{
				"constant": true,
				"inputs": [
					{
						"name": "assetData",
						"type": "bytes"
					}
				],
				"name": "publicDecodeERC721Data",
				"outputs": [
					{
						"name": "",
						"type": "uint8"
					},
					{
						"name": "",
						"type": "address"
					},
					{
						"name": "",
						"type": "uint256"
					},
					{
						"name": "",
						"type": "bytes"
					}
				],
				"payable": false,
				"stateMutability": "pure",
				"type": "function"
			},
			{
				"constant": true,
				"inputs": [],
				"name": "owner",
				"outputs": [
					{
						"name": "",
						"type": "address"
					}
				],
				"payable": false,
				"stateMutability": "view",
				"type": "function"
			},
			{
				"constant": false,
				"inputs": [
					{
						"name": "target",
						"type": "address"
					},
					{
						"name": "index",
						"type": "uint256"
					}
				],
				"name": "removeAuthorizedAddressAtIndex",
				"outputs": [],
				"payable": false,
				"stateMutability": "nonpayable",
				"type": "function"
			},
			{
				"constant": false,
				"inputs": [
					{
						"name": "assetData",
						"type": "bytes"
					},
					{
						"name": "from",
						"type": "address"
					},
					{
						"name": "to",
						"type": "address"
					},
					{
						"name": "amount",
						"type": "uint256"
					}
				],
				"name": "transferFrom",
				"outputs": [],
				"payable": false,
				"stateMutability": "nonpayable",
				"type": "function"
			},
			{
				"constant": true,
				"inputs": [],
				"name": "getProxyId",
				"outputs": [
					{
						"name": "",
						"type": "uint8"
					}
				],
				"payable": false,
				"stateMutability": "view",
				"type": "function"
			},
			{
				"constant": true,
				"inputs": [
					{
						"name": "",
						"type": "address"
					}
				],
				"name": "authorized",
				"outputs": [
					{
						"name": "",
						"type": "bool"
					}
				],
				"payable": false,
				"stateMutability": "view",
				"type": "function"
			},
			{
				"constant": true,
				"inputs": [
					{
						"name": "assetData",
						"type": "bytes"
					}
				],
				"name": "publicDecodeERC20Data",
				"outputs": [
					{
						"name": "",
						"type": "uint8"
					},
					{
						"name": "",
						"type": "address"
					}
				],
				"payable": false,
				"stateMutability": "pure",
				"type": "function"
			},
			{
				"constant": true,
				"inputs": [],
				"name": "getAuthorizedAddresses",
				"outputs": [
					{
						"name": "",
						"type": "address[]"
					}
				],
				"payable": false,
				"stateMutability": "view",
				"type": "function"
			},
			{
				"constant": false,
				"inputs": [
					{
						"name": "newOwner",
						"type": "address"
					}
				],
				"name": "transferOwnership",
				"outputs": [],
				"payable": false,
				"stateMutability": "nonpayable",
				"type": "function"
			},
			{
				"anonymous": false,
				"inputs": [
					{
						"indexed": true,
						"name": "target",
						"type": "address"
					},
					{
						"indexed": true,
						"name": "caller",
						"type": "address"
					}
				],
				"name": "AuthorizedAddressAdded",
				"type": "event"
			},
			{
				"anonymous": false,
				"inputs": [
					{
						"indexed": true,
						"name": "target",
						"type": "address"
					},
					{
						"indexed": true,
						"name": "caller",
						"type": "address"
					}
				],
				"name": "AuthorizedAddressRemoved",
				"type": "event"
			}
		],
		"evm": {
			"bytecode": {
				"linkReferences": {},
				"object": "0x608060405260008054600160a060020a03191633179055611728806100256000396000f3006080604052600436106100ab5763ffffffff60e060020a60003504166342f1181e81146100b0578063494503d4146100d2578063563c875d14610108578063707129391461012857806372c2f527146101485780638da5cb5b146101785780639ad267441461018d578063a85e59e4146101ad578063ae25532e146101cd578063b9181611146101ef578063bd27c22d1461021c578063d39de6e91461024a578063f2fde38b1461026c575b600080fd5b3480156100bc57600080fd5b506100d06100cb3660046111e2565b61028c565b005b3480156100de57600080fd5b506100f26100ed3660046113ae565b6103db565b6040516100ff91906114d1565b60405180910390f35b34801561011457600080fd5b506100d0610123366004611242565b610403565b34801561013457600080fd5b506100d06101433660046111e2565b6104fb565b34801561015457600080fd5b5061016861016336600461137a565b6106bb565b6040516100ff949392919061158c565b34801561018457600080fd5b506100f26106da565b34801561019957600080fd5b506100d06101a8366004611208565b6106e9565b3480156101b957600080fd5b506100d06101c83660046112fe565b6108c1565b3480156101d957600080fd5b506101e2610974565b6040516100ff9190611563565b3480156101fb57600080fd5b5061020f61020a3660046111e2565b61097a565b6040516100ff9190611534565b34801561022857600080fd5b5061023c61023736600461137a565b61098f565b6040516100ff929190611571565b34801561025657600080fd5b5061025f6109a4565b6040516100ff9190611523565b34801561027857600080fd5b506100d06102873660046111e2565b610a06565b600054600160a060020a031633146102c25760405160e560020a62461bcd0281526004016102b990611553565b60405180910390fd5b600160a060020a038116600090815260016020908152604091829020548251606081018452602681527f546172676574206d757374206e6f7420616c726561647920626520617574686f9281019290925260d160020a653934bd32b21702928201929092529060ff161561034c5760405160e560020a62461bcd0281526004016102b99190611542565b50600160a060020a0381166000818152600160208190526040808320805460ff19168317905560028054928301815583527f405787fa12a823e0f2b7631cc41b3ba8828b3321ca811111fa75cd3aa3bb5ace9091018054600160a060020a03191684179055513392917f3147867c59d17e8fa9d522465651d44aae0a9e38f902f3475b97e58072f0ed4c91a350565b60028054829081106103e957fe5b600091825260209091200154600160a060020a0316905081565b336000908152600160209081526040808320548151606081018352602a815260008051602061168f8339815191529381019390935260b160020a6934b99036b2ba3437b217029183019190915260ff1615156104755760405160e560020a62461bcd0281526004016102b99190611542565b50600090505b84518110156104f4576104ec858281518110151561049557fe5b9060200190602002015185838151811015156104ad57fe5b9060200190602002015185848151811015156104c557fe5b9060200190602002015185858151811015156104dd57fe5b90602001906020020151610a61565b60010161047b565b5050505050565b60008054600160a060020a031633146105295760405160e560020a62461bcd0281526004016102b990611553565b600160a060020a038216600090815260016020908152604091829020548251606081018452602281527f5461726765742061646472657373206d75737420626520617574686f72697a659281019290925260f160020a61321702928201929092529060ff1615156105b05760405160e560020a62461bcd0281526004016102b99190611542565b5050600160a060020a0381166000908152600160205260408120805460ff191690555b6002548110156106935781600160a060020a03166002828154811015156105f657fe5b600091825260209091200154600160a060020a0316141561068b5760028054600019810190811061062357fe5b60009182526020909120015460028054600160a060020a03909216918390811061064957fe5b60009182526020909120018054600160a060020a031916600160a060020a03929092169190911790556002805460001901906106859082610faa565b50610693565b6001016105d3565b6040513390600160a060020a038416906000805160206116af83398151915290600090a35050565b600080600060606106cb85610bc1565b93509350935093509193509193565b600054600160a060020a031681565b60025460408051606081018252602781527f53706563696669656420617272617920696e646578206973206f7574206f6620602082015260c960020a663137bab732399702918101919091529082106107585760405160e560020a62461bcd0281526004016102b99190611542565b5081600160a060020a031660028281548110151561077257fe5b6000918252602091829020015460408051606081018252603581527f4164647265737320666f756e6420617420696e64657820646f6573206e6f742093810193909352605960020a7436b0ba31b4103a30b933b2ba1030b2323932b9b99702908301529091600160a060020a03909116146108035760405160e560020a62461bcd0281526004016102b99190611542565b50600160a060020a0382166000908152600160205260409020805460ff1916905560028054600019810190811061083657fe5b60009182526020909120015460028054600160a060020a03909216918390811061085c57fe5b60009182526020909120018054600160a060020a031916600160a060020a03929092169190911790556002805460001901906108989082610faa565b506040513390600160a060020a038416906000805160206116af83398151915290600090a35050565b33600090815260016020908152604091829020548251606081018452602a815260008051602061168f8339815191529281019290925260b160020a6934b99036b2ba3437b21702928201929092529060ff1615156109355760405160e560020a62461bcd0281526004016102b99190611542565b506104f485858080601f016020809104026020016040519081016040528093929190818152602001838380828437820191505050505050848484610a61565b60025b90565b60016020526000908152604090205460ff1681565b60008061099b83610c8b565b91509150915091565b606060028054806020026020016040519081016040528092919081815260200182805480156109fc57602002820191906000526020600020905b8154600160a060020a031681526001909101906020018083116109de575b5050505050905090565b600054600160a060020a03163314610a335760405160e560020a62461bcd0281526004016102b990611553565b600160a060020a03811615610a5e5760008054600160a060020a031916600160a060020a0383161790555b50565b60008060006060610a7188610bc1565b60408051606081018252603281527f50726f787920696420696e206d6574616461746120646f6573206e6f74206d616020820152607160020a713a31b4103a3434b990383937bc3c9034b21702918101919091529397509195509350915060ff8516600214610af65760405160e560020a62461bcd0281526004016102b99190611542565b5060408051808201909152601d81527f5472616e7366657220616d6f756e74206d75737420657175616c20312e000000602082015260018614610b4f5760405160e560020a62461bcd0281526004016102b99190611542565b5060405160e160020a635c46a7ef028152600160a060020a0384169063b88d4fde90610b85908a908a90879087906004016114df565b600060405180830381600087803b158015610b9f57600080fd5b505af1158015610bb3573d6000803e3d6000fd5b505050505050505050505050565b60008060006060603585511015606060405190810160405280602d815260200160008051602061166f8339815191528152602001609960020a6c1030ba103632b0b9ba101a999702815250901515610c2f5760405160e560020a62461bcd0281526004016102b99190611542565b50846000815181101515610c3f57fe5b016020015160f860020a908190048102049350610c5d856001610d20565b9250610c6a856015610da6565b9150603585511115610c8457610c81856035610db9565b90505b9193509193565b60008082516015146060604051908101604052806024815260200160008051602061166f833981519152815260200160e160020a631019189702815250901515610ceb5760405160e560020a62461bcd0281526004016102b99190611542565b50826000815181101515610cfb57fe5b016020015160f860020a908190048102049150610d19836001610d20565b9050915091565b60008160140183511015606060405190810160405280602b81526020016000805160206116cf833981519152815260200160a960020a6a38bab0b6103a379019181702815250901515610d895760405160e560020a62461bcd0281526004016102b99190611542565b50506014818301810151910190600160a060020a03165b92915050565b6000610db28383610e91565b9392505050565b60606000610dc78484610da6565b905060208301925080830184511015606060405190810160405280602b81526020016000805160206116cf833981519152815260200160a960020a6a38bab0b6103a379019991702815250901515610e355760405160e560020a62461bcd0281526004016102b99190611542565b50806040519080825280601f01601f191660200182016040528015610e64578160200160208202803883390190505b509150610e8a610e7383610977565b60200184610e8087610977565b0160200183610f04565b5092915050565b60008160200183511015606060405190810160405280602b81526020016000805160206116cf833981519152815260200160a960020a6a38bab0b6103a379019991702815250901515610efa5760405160e560020a62461bcd0281526004016102b99190611542565b5050016020015190565b6020811015610f2e576001816020036101000a038019835116818551168082178652505050610fa5565b82821415610f3b57610fa5565b82821115610f755760208103905080820181840181515b82851015610f6d578451865260209586019590940193610f52565b905250610fa5565b60208103905080820181840183515b82851015610fa05782518252601f199283019290910190610f84565b855250505b505050565b815481835581811115610fa557600083815260209020610fa591810190830161097791905b80821115610fe35760008155600101610fcf565b5090565b6000610db28235611611565b6000601f8201831361100457600080fd5b8135611017611012826115c0565b61159a565b9150818183526020840193506020810190508385602084028201111561103c57600080fd5b60005b8381101561106857816110528882610fe7565b845250602092830192919091019060010161103f565b5050505092915050565b6000601f8201831361108357600080fd5b8135611091611012826115c0565b81815260209384019390925082018360005b8381101561106857813586016110b98882611187565b84525060209283019291909101906001016110a3565b6000601f820183136110e057600080fd5b81356110ee611012826115c0565b9150818183526020840193506020810190508385602084028201111561111357600080fd5b60005b83811015611068578161112988826111d6565b8452506020928301929190910190600101611116565b600080601f8301841361115157600080fd5b5081356001604060020a0381111561116857600080fd5b60208301915083600182028301111561118057600080fd5b9250929050565b6000601f8201831361119857600080fd5b81356111a6611012826115e0565b915080825260208301602083018583830111156111c257600080fd5b6111cd838284611628565b50505092915050565b6000610db28235610977565b6000602082840312156111f457600080fd5b60006112008484610fe7565b949350505050565b6000806040838503121561121b57600080fd5b60006112278585610fe7565b9250506020611238858286016111d6565b9150509250929050565b6000806000806080858703121561125857600080fd5b84356001604060020a0381111561126e57600080fd5b61127a87828801611072565b94505060208501356001604060020a0381111561129657600080fd5b6112a287828801610ff3565b93505060408501356001604060020a038111156112be57600080fd5b6112ca87828801610ff3565b92505060608501356001604060020a038111156112e657600080fd5b6112f2878288016110cf565b91505092959194509250565b60008060008060006080868803121561131657600080fd5b85356001604060020a0381111561132c57600080fd5b6113388882890161113f565b9550955050602061134b88828901610fe7565b935050604061135c88828901610fe7565b925050606061136d888289016111d6565b9150509295509295909350565b60006020828403121561138c57600080fd5b81356001604060020a038111156113a257600080fd5b61120084828501611187565b6000602082840312156113c057600080fd5b600061120084846111d6565b6113d581611611565b82525050565b60006113e68261160d565b8084526020840193506113f883611607565b60005b828110156114285761140e8683516113cc565b61141782611607565b6020969096019591506001016113fb565b5093949350505050565b6113d58161161d565b60006114468261160d565b80845261145a816020860160208601611634565b61146381611664565b9093016020019392505050565b603381527f4f6e6c7920636f6e7472616374206f776e657220697320616c6c6f77656420746020820152606960020a72379031b0b636103a3434b99036b2ba3437b21702604082015260600190565b6113d581610977565b6113d581611622565b60208101610da082846113cc565b608081016114ed82876113cc565b6114fa60208301866113cc565b61150760408301856114bf565b8181036060830152611519818461143b565b9695505050505050565b60208082528101610db281846113db565b60208101610da08284611432565b60208082528101610db2818461143b565b60208082528101610da081611470565b60208101610da082846114c8565b6040810161157f82856114c8565b610db260208301846113cc565b608081016114ed82876114c8565b6040518181016001604060020a03811182821017156115b857600080fd5b604052919050565b60006001604060020a038211156115d657600080fd5b5060209081020190565b60006001604060020a038211156115f657600080fd5b506020601f91909101601f19160190565b60200190565b5190565b600160a060020a031690565b151590565b60ff1690565b82818337506000910152565b60005b8381101561164f578181015183820152602001611637565b8381111561165e576000848401525b50505050565b601f01601f191690560041737365742064617461206d75737420686176652061206c656e677468206f6653656e646572206e6f7420617574686f72697a656420746f2063616c6c2074681f32c1b084e2de0713b8fb16bd46bb9df710a3dbeae2f3ca93af46e016dcc6b04c656e677468206d7573742062652067726561746572207468616e206f722065a265627a7a72305820abadc8dd7ea3b1875609e22a630d8bdb92447de368278083ccd6f1b40d3f2bb86c6578706572696d656e74616cf50037",
				"opcodes": "PUSH1 0x80 PUSH1 0x40 MSTORE PUSH1 0x0 DUP1 SLOAD PUSH1 0x1 PUSH1 0xA0 PUSH1 0x2 EXP SUB NOT AND CALLER OR SWAP1 SSTORE PUSH2 0x1728 DUP1 PUSH2 0x25 PUSH1 0x0 CODECOPY PUSH1 0x0 RETURN STOP PUSH1 0x80 PUSH1 0x40 MSTORE PUSH1 0x4 CALLDATASIZE LT PUSH2 0xAB JUMPI PUSH4 0xFFFFFFFF PUSH1 0xE0 PUSH1 0x2 EXP PUSH1 0x0 CALLDATALOAD DIV AND PUSH4 0x42F1181E DUP2 EQ PUSH2 0xB0 JUMPI DUP1 PUSH4 0x494503D4 EQ PUSH2 0xD2 JUMPI DUP1 PUSH4 0x563C875D EQ PUSH2 0x108 JUMPI DUP1 PUSH4 0x70712939 EQ PUSH2 0x128 JUMPI DUP1 PUSH4 0x72C2F527 EQ PUSH2 0x148 JUMPI DUP1 PUSH4 0x8DA5CB5B EQ PUSH2 0x178 JUMPI DUP1 PUSH4 0x9AD26744 EQ PUSH2 0x18D JUMPI DUP1 PUSH4 0xA85E59E4 EQ PUSH2 0x1AD JUMPI DUP1 PUSH4 0xAE25532E EQ PUSH2 0x1CD JUMPI DUP1 PUSH4 0xB9181611 EQ PUSH2 0x1EF JUMPI DUP1 PUSH4 0xBD27C22D EQ PUSH2 0x21C JUMPI DUP1 PUSH4 0xD39DE6E9 EQ PUSH2 0x24A JUMPI DUP1 PUSH4 0xF2FDE38B EQ PUSH2 0x26C JUMPI JUMPDEST PUSH1 0x0 DUP1 REVERT JUMPDEST CALLVALUE DUP1 ISZERO PUSH2 0xBC JUMPI PUSH1 0x0 DUP1 REVERT JUMPDEST POP PUSH2 0xD0 PUSH2 0xCB CALLDATASIZE PUSH1 0x4 PUSH2 0x11E2 JUMP JUMPDEST PUSH2 0x28C JUMP JUMPDEST STOP JUMPDEST CALLVALUE DUP1 ISZERO PUSH2 0xDE JUMPI PUSH1 0x0 DUP1 REVERT JUMPDEST POP PUSH2 0xF2 PUSH2 0xED CALLDATASIZE PUSH1 0x4 PUSH2 0x13AE JUMP JUMPDEST PUSH2 0x3DB JUMP JUMPDEST PUSH1 0x40 MLOAD PUSH2 0xFF SWAP2 SWAP1 PUSH2 0x14D1 JUMP JUMPDEST PUSH1 0x40 MLOAD DUP1 SWAP2 SUB SWAP1 RETURN JUMPDEST CALLVALUE DUP1 ISZERO PUSH2 0x114 JUMPI PUSH1 0x0 DUP1 REVERT JUMPDEST POP PUSH2 0xD0 PUSH2 0x123 CALLDATASIZE PUSH1 0x4 PUSH2 0x1242 JUMP JUMPDEST PUSH2 0x403 JUMP JUMPDEST CALLVALUE DUP1 ISZERO PUSH2 0x134 JUMPI PUSH1 0x0 DUP1 REVERT JUMPDEST POP PUSH2 0xD0 PUSH2 0x143 CALLDATASIZE PUSH1 0x4 PUSH2 0x11E2 JUMP JUMPDEST PUSH2 0x4FB JUMP JUMPDEST CALLVALUE DUP1 ISZERO PUSH2 0x154 JUMPI PUSH1 0x0 DUP1 REVERT JUMPDEST POP PUSH2 0x168 PUSH2 0x163 CALLDATASIZE PUSH1 0x4 PUSH2 0x137A JUMP JUMPDEST PUSH2 0x6BB JUMP JUMPDEST PUSH1 0x40 MLOAD PUSH2 0xFF SWAP5 SWAP4 SWAP3 SWAP2 SWAP1 PUSH2 0x158C JUMP JUMPDEST CALLVALUE DUP1 ISZERO PUSH2 0x184 JUMPI PUSH1 0x0 DUP1 REVERT JUMPDEST POP PUSH2 0xF2 PUSH2 0x6DA JUMP JUMPDEST CALLVALUE DUP1 ISZERO PUSH2 0x199 JUMPI PUSH1 0x0 DUP1 REVERT JUMPDEST POP PUSH2 0xD0 PUSH2 0x1A8 CALLDATASIZE PUSH1 0x4 PUSH2 0x1208 JUMP JUMPDEST PUSH2 0x6E9 JUMP JUMPDEST CALLVALUE DUP1 ISZERO PUSH2 0x1B9 JUMPI PUSH1 0x0 DUP1 REVERT JUMPDEST POP PUSH2 0xD0 PUSH2 0x1C8 CALLDATASIZE PUSH1 0x4 PUSH2 0x12FE JUMP JUMPDEST PUSH2 0x8C1 JUMP JUMPDEST CALLVALUE DUP1 ISZERO PUSH2 0x1D9 JUMPI PUSH1 0x0 DUP1 REVERT JUMPDEST POP PUSH2 0x1E2 PUSH2 0x974 JUMP JUMPDEST PUSH1 0x40 MLOAD PUSH2 0xFF SWAP2 SWAP1 PUSH2 0x1563 JUMP JUMPDEST CALLVALUE DUP1 ISZERO PUSH2 0x1FB JUMPI PUSH1 0x0 DUP1 REVERT JUMPDEST POP PUSH2 0x20F PUSH2 0x20A CALLDATASIZE PUSH1 0x4 PUSH2 0x11E2 JUMP JUMPDEST PUSH2 0x97A JUMP JUMPDEST PUSH1 0x40 MLOAD PUSH2 0xFF SWAP2 SWAP1 PUSH2 0x1534 JUMP JUMPDEST CALLVALUE DUP1 ISZERO PUSH2 0x228 JUMPI PUSH1 0x0 DUP1 REVERT JUMPDEST POP PUSH2 0x23C PUSH2 0x237 CALLDATASIZE PUSH1 0x4 PUSH2 0x137A JUMP JUMPDEST PUSH2 0x98F JUMP JUMPDEST PUSH1 0x40 MLOAD PUSH2 0xFF SWAP3 SWAP2 SWAP1 PUSH2 0x1571 JUMP JUMPDEST CALLVALUE DUP1 ISZERO PUSH2 0x256 JUMPI PUSH1 0x0 DUP1 REVERT JUMPDEST POP PUSH2 0x25F PUSH2 0x9A4 JUMP JUMPDEST PUSH1 0x40 MLOAD PUSH2 0xFF SWAP2 SWAP1 PUSH2 0x1523 JUMP JUMPDEST CALLVALUE DUP1 ISZERO PUSH2 0x278 JUMPI PUSH1 0x0 DUP1 REVERT JUMPDEST POP PUSH2 0xD0 PUSH2 0x287 CALLDATASIZE PUSH1 0x4 PUSH2 0x11E2 JUMP JUMPDEST PUSH2 0xA06 JUMP JUMPDEST PUSH1 0x0 SLOAD PUSH1 0x1 PUSH1 0xA0 PUSH1 0x2 EXP SUB AND CALLER EQ PUSH2 0x2C2 JUMPI PUSH1 0x40 MLOAD PUSH1 0xE5 PUSH1 0x2 EXP PUSH3 0x461BCD MUL DUP2 MSTORE PUSH1 0x4 ADD PUSH2 0x2B9 SWAP1 PUSH2 0x1553 JUMP JUMPDEST PUSH1 0x40 MLOAD DUP1 SWAP2 SUB SWAP1 REVERT JUMPDEST PUSH1 0x1 PUSH1 0xA0 PUSH1 0x2 EXP SUB DUP2 AND PUSH1 0x0 SWAP1 DUP2 MSTORE PUSH1 0x1 PUSH1 0x20 SWAP1 DUP2 MSTORE PUSH1 0x40 SWAP2 DUP3 SWAP1 KECCAK256 SLOAD DUP3 MLOAD PUSH1 0x60 DUP2 ADD DUP5 MSTORE PUSH1 0x26 DUP2 MSTORE PUSH32 0x546172676574206D757374206E6F7420616C726561647920626520617574686F SWAP3 DUP2 ADD SWAP3 SWAP1 SWAP3 MSTORE PUSH1 0xD1 PUSH1 0x2 EXP PUSH6 0x3934BD32B217 MUL SWAP3 DUP3 ADD SWAP3 SWAP1 SWAP3 MSTORE SWAP1 PUSH1 0xFF AND ISZERO PUSH2 0x34C JUMPI PUSH1 0x40 MLOAD PUSH1 0xE5 PUSH1 0x2 EXP PUSH3 0x461BCD MUL DUP2 MSTORE PUSH1 0x4 ADD PUSH2 0x2B9 SWAP2 SWAP1 PUSH2 0x1542 JUMP JUMPDEST POP PUSH1 0x1 PUSH1 0xA0 PUSH1 0x2 EXP SUB DUP2 AND PUSH1 0x0 DUP2 DUP2 MSTORE PUSH1 0x1 PUSH1 0x20 DUP2 SWAP1 MSTORE PUSH1 0x40 DUP1 DUP4 KECCAK256 DUP1 SLOAD PUSH1 0xFF NOT AND DUP4 OR SWAP1 SSTORE PUSH1 0x2 DUP1 SLOAD SWAP3 DUP4 ADD DUP2 SSTORE DUP4 MSTORE PUSH32 0x405787FA12A823E0F2B7631CC41B3BA8828B3321CA811111FA75CD3AA3BB5ACE SWAP1 SWAP2 ADD DUP1 SLOAD PUSH1 0x1 PUSH1 0xA0 PUSH1 0x2 EXP SUB NOT AND DUP5 OR SWAP1 SSTORE MLOAD CALLER SWAP3 SWAP2 PUSH32 0x3147867C59D17E8FA9D522465651D44AAE0A9E38F902F3475B97E58072F0ED4C SWAP2 LOG3 POP JUMP JUMPDEST PUSH1 0x2 DUP1 SLOAD DUP3 SWAP1 DUP2 LT PUSH2 0x3E9 JUMPI INVALID JUMPDEST PUSH1 0x0 SWAP2 DUP3 MSTORE PUSH1 0x20 SWAP1 SWAP2 KECCAK256 ADD SLOAD PUSH1 0x1 PUSH1 0xA0 PUSH1 0x2 EXP SUB AND SWAP1 POP DUP2 JUMP JUMPDEST CALLER PUSH1 0x0 SWAP1 DUP2 MSTORE PUSH1 0x1 PUSH1 0x20 SWAP1 DUP2 MSTORE PUSH1 0x40 DUP1 DUP4 KECCAK256 SLOAD DUP2 MLOAD PUSH1 0x60 DUP2 ADD DUP4 MSTORE PUSH1 0x2A DUP2 MSTORE PUSH1 0x0 DUP1 MLOAD PUSH1 0x20 PUSH2 0x168F DUP4 CODECOPY DUP2 MLOAD SWAP2 MSTORE SWAP4 DUP2 ADD SWAP4 SWAP1 SWAP4 MSTORE PUSH1 0xB1 PUSH1 0x2 EXP PUSH10 0x34B99036B2BA3437B217 MUL SWAP2 DUP4 ADD SWAP2 SWAP1 SWAP2 MSTORE PUSH1 0xFF AND ISZERO ISZERO PUSH2 0x475 JUMPI PUSH1 0x40 MLOAD PUSH1 0xE5 PUSH1 0x2 EXP PUSH3 0x461BCD MUL DUP2 MSTORE PUSH1 0x4 ADD PUSH2 0x2B9 SWAP2 SWAP1 PUSH2 0x1542 JUMP JUMPDEST POP PUSH1 0x0 SWAP1 POP JUMPDEST DUP5 MLOAD DUP2 LT ISZERO PUSH2 0x4F4 JUMPI PUSH2 0x4EC DUP6 DUP3 DUP2 MLOAD DUP2 LT ISZERO ISZERO PUSH2 0x495 JUMPI INVALID JUMPDEST SWAP1 PUSH1 0x20 ADD SWAP1 PUSH1 0x20 MUL ADD MLOAD DUP6 DUP4 DUP2 MLOAD DUP2 LT ISZERO ISZERO PUSH2 0x4AD JUMPI INVALID JUMPDEST SWAP1 PUSH1 0x20 ADD SWAP1 PUSH1 0x20 MUL ADD MLOAD DUP6 DUP5 DUP2 MLOAD DUP2 LT ISZERO ISZERO PUSH2 0x4C5 JUMPI INVALID JUMPDEST SWAP1 PUSH1 0x20 ADD SWAP1 PUSH1 0x20 MUL ADD MLOAD DUP6 DUP6 DUP2 MLOAD DUP2 LT ISZERO ISZERO PUSH2 0x4DD JUMPI INVALID JUMPDEST SWAP1 PUSH1 0x20 ADD SWAP1 PUSH1 0x20 MUL ADD MLOAD PUSH2 0xA61 JUMP JUMPDEST PUSH1 0x1 ADD PUSH2 0x47B JUMP JUMPDEST POP POP POP POP POP JUMP JUMPDEST PUSH1 0x0 DUP1 SLOAD PUSH1 0x1 PUSH1 0xA0 PUSH1 0x2 EXP SUB AND CALLER EQ PUSH2 0x529 JUMPI PUSH1 0x40 MLOAD PUSH1 0xE5 PUSH1 0x2 EXP PUSH3 0x461BCD MUL DUP2 MSTORE PUSH1 0x4 ADD PUSH2 0x2B9 SWAP1 PUSH2 0x1553 JUMP JUMPDEST PUSH1 0x1 PUSH1 0xA0 PUSH1 0x2 EXP SUB DUP3 AND PUSH1 0x0 SWAP1 DUP2 MSTORE PUSH1 0x1 PUSH1 0x20 SWAP1 DUP2 MSTORE PUSH1 0x40 SWAP2 DUP3 SWAP1 KECCAK256 SLOAD DUP3 MLOAD PUSH1 0x60 DUP2 ADD DUP5 MSTORE PUSH1 0x22 DUP2 MSTORE PUSH32 0x5461726765742061646472657373206D75737420626520617574686F72697A65 SWAP3 DUP2 ADD SWAP3 SWAP1 SWAP3 MSTORE PUSH1 0xF1 PUSH1 0x2 EXP PUSH2 0x3217 MUL SWAP3 DUP3 ADD SWAP3 SWAP1 SWAP3 MSTORE SWAP1 PUSH1 0xFF AND ISZERO ISZERO PUSH2 0x5B0 JUMPI PUSH1 0x40 MLOAD PUSH1 0xE5 PUSH1 0x2 EXP PUSH3 0x461BCD MUL DUP2 MSTORE PUSH1 0x4 ADD PUSH2 0x2B9 SWAP2 SWAP1 PUSH2 0x1542 JUMP JUMPDEST POP POP PUSH1 0x1 PUSH1 0xA0 PUSH1 0x2 EXP SUB DUP2 AND PUSH1 0x0 SWAP1 DUP2 MSTORE PUSH1 0x1 PUSH1 0x20 MSTORE PUSH1 0x40 DUP2 KECCAK256 DUP1 SLOAD PUSH1 0xFF NOT AND SWAP1 SSTORE JUMPDEST PUSH1 0x2 SLOAD DUP2 LT ISZERO PUSH2 0x693 JUMPI DUP2 PUSH1 0x1 PUSH1 0xA0 PUSH1 0x2 EXP SUB AND PUSH1 0x2 DUP3 DUP2 SLOAD DUP2 LT ISZERO ISZERO PUSH2 0x5F6 JUMPI INVALID JUMPDEST PUSH1 0x0 SWAP2 DUP3 MSTORE PUSH1 0x20 SWAP1 SWAP2 KECCAK256 ADD SLOAD PUSH1 0x1 PUSH1 0xA0 PUSH1 0x2 EXP SUB AND EQ ISZERO PUSH2 0x68B JUMPI PUSH1 0x2 DUP1 SLOAD PUSH1 0x0 NOT DUP2 ADD SWAP1 DUP2 LT PUSH2 0x623 JUMPI INVALID JUMPDEST PUSH1 0x0 SWAP2 DUP3 MSTORE PUSH1 0x20 SWAP1 SWAP2 KECCAK256 ADD SLOAD PUSH1 0x2 DUP1 SLOAD PUSH1 0x1 PUSH1 0xA0 PUSH1 0x2 EXP SUB SWAP1 SWAP3 AND SWAP2 DUP4 SWAP1 DUP2 LT PUSH2 0x649 JUMPI INVALID JUMPDEST PUSH1 0x0 SWAP2 DUP3 MSTORE PUSH1 0x20 SWAP1 SWAP2 KECCAK256 ADD DUP1 SLOAD PUSH1 0x1 PUSH1 0xA0 PUSH1 0x2 EXP SUB NOT AND PUSH1 0x1 PUSH1 0xA0 PUSH1 0x2 EXP SUB SWAP3 SWAP1 SWAP3 AND SWAP2 SWAP1 SWAP2 OR SWAP1 SSTORE PUSH1 0x2 DUP1 SLOAD PUSH1 0x0 NOT ADD SWAP1 PUSH2 0x685 SWAP1 DUP3 PUSH2 0xFAA JUMP JUMPDEST POP PUSH2 0x693 JUMP JUMPDEST PUSH1 0x1 ADD PUSH2 0x5D3 JUMP JUMPDEST PUSH1 0x40 MLOAD CALLER SWAP1 PUSH1 0x1 PUSH1 0xA0 PUSH1 0x2 EXP SUB DUP5 AND SWAP1 PUSH1 0x0 DUP1 MLOAD PUSH1 0x20 PUSH2 0x16AF DUP4 CODECOPY DUP2 MLOAD SWAP2 MSTORE SWAP1 PUSH1 0x0 SWAP1 LOG3 POP POP JUMP JUMPDEST PUSH1 0x0 DUP1 PUSH1 0x0 PUSH1 0x60 PUSH2 0x6CB DUP6 PUSH2 0xBC1 JUMP JUMPDEST SWAP4 POP SWAP4 POP SWAP4 POP SWAP4 POP SWAP2 SWAP4 POP SWAP2 SWAP4 JUMP JUMPDEST PUSH1 0x0 SLOAD PUSH1 0x1 PUSH1 0xA0 PUSH1 0x2 EXP SUB AND DUP2 JUMP JUMPDEST PUSH1 0x2 SLOAD PUSH1 0x40 DUP1 MLOAD PUSH1 0x60 DUP2 ADD DUP3 MSTORE PUSH1 0x27 DUP2 MSTORE PUSH32 0x53706563696669656420617272617920696E646578206973206F7574206F6620 PUSH1 0x20 DUP3 ADD MSTORE PUSH1 0xC9 PUSH1 0x2 EXP PUSH7 0x3137BAB7323997 MUL SWAP2 DUP2 ADD SWAP2 SWAP1 SWAP2 MSTORE SWAP1 DUP3 LT PUSH2 0x758 JUMPI PUSH1 0x40 MLOAD PUSH1 0xE5 PUSH1 0x2 EXP PUSH3 0x461BCD MUL DUP2 MSTORE PUSH1 0x4 ADD PUSH2 0x2B9 SWAP2 SWAP1 PUSH2 0x1542 JUMP JUMPDEST POP DUP2 PUSH1 0x1 PUSH1 0xA0 PUSH1 0x2 EXP SUB AND PUSH1 0x2 DUP3 DUP2 SLOAD DUP2 LT ISZERO ISZERO PUSH2 0x772 JUMPI INVALID JUMPDEST PUSH1 0x0 SWAP2 DUP3 MSTORE PUSH1 0x20 SWAP2 DUP3 SWAP1 KECCAK256 ADD SLOAD PUSH1 0x40 DUP1 MLOAD PUSH1 0x60 DUP2 ADD DUP3 MSTORE PUSH1 0x35 DUP2 MSTORE PUSH32 0x4164647265737320666F756E6420617420696E64657820646F6573206E6F7420 SWAP4 DUP2 ADD SWAP4 SWAP1 SWAP4 MSTORE PUSH1 0x59 PUSH1 0x2 EXP PUSH21 0x36B0BA31B4103A30B933B2BA1030B2323932B9B997 MUL SWAP1 DUP4 ADD MSTORE SWAP1 SWAP2 PUSH1 0x1 PUSH1 0xA0 PUSH1 0x2 EXP SUB SWAP1 SWAP2 AND EQ PUSH2 0x803 JUMPI PUSH1 0x40 MLOAD PUSH1 0xE5 PUSH1 0x2 EXP PUSH3 0x461BCD MUL DUP2 MSTORE PUSH1 0x4 ADD PUSH2 0x2B9 SWAP2 SWAP1 PUSH2 0x1542 JUMP JUMPDEST POP PUSH1 0x1 PUSH1 0xA0 PUSH1 0x2 EXP SUB DUP3 AND PUSH1 0x0 SWAP1 DUP2 MSTORE PUSH1 0x1 PUSH1 0x20 MSTORE PUSH1 0x40 SWAP1 KECCAK256 DUP1 SLOAD PUSH1 0xFF NOT AND SWAP1 SSTORE PUSH1 0x2 DUP1 SLOAD PUSH1 0x0 NOT DUP2 ADD SWAP1 DUP2 LT PUSH2 0x836 JUMPI INVALID JUMPDEST PUSH1 0x0 SWAP2 DUP3 MSTORE PUSH1 0x20 SWAP1 SWAP2 KECCAK256 ADD SLOAD PUSH1 0x2 DUP1 SLOAD PUSH1 0x1 PUSH1 0xA0 PUSH1 0x2 EXP SUB SWAP1 SWAP3 AND SWAP2 DUP4 SWAP1 DUP2 LT PUSH2 0x85C JUMPI INVALID JUMPDEST PUSH1 0x0 SWAP2 DUP3 MSTORE PUSH1 0x20 SWAP1 SWAP2 KECCAK256 ADD DUP1 SLOAD PUSH1 0x1 PUSH1 0xA0 PUSH1 0x2 EXP SUB NOT AND PUSH1 0x1 PUSH1 0xA0 PUSH1 0x2 EXP SUB SWAP3 SWAP1 SWAP3 AND SWAP2 SWAP1 SWAP2 OR SWAP1 SSTORE PUSH1 0x2 DUP1 SLOAD PUSH1 0x0 NOT ADD SWAP1 PUSH2 0x898 SWAP1 DUP3 PUSH2 0xFAA JUMP JUMPDEST POP PUSH1 0x40 MLOAD CALLER SWAP1 PUSH1 0x1 PUSH1 0xA0 PUSH1 0x2 EXP SUB DUP5 AND SWAP1 PUSH1 0x0 DUP1 MLOAD PUSH1 0x20 PUSH2 0x16AF DUP4 CODECOPY DUP2 MLOAD SWAP2 MSTORE SWAP1 PUSH1 0x0 SWAP1 LOG3 POP POP JUMP JUMPDEST CALLER PUSH1 0x0 SWAP1 DUP2 MSTORE PUSH1 0x1 PUSH1 0x20 SWAP1 DUP2 MSTORE PUSH1 0x40 SWAP2 DUP3 SWAP1 KECCAK256 SLOAD DUP3 MLOAD PUSH1 0x60 DUP2 ADD DUP5 MSTORE PUSH1 0x2A DUP2 MSTORE PUSH1 0x0 DUP1 MLOAD PUSH1 0x20 PUSH2 0x168F DUP4 CODECOPY DUP2 MLOAD SWAP2 MSTORE SWAP3 DUP2 ADD SWAP3 SWAP1 SWAP3 MSTORE PUSH1 0xB1 PUSH1 0x2 EXP PUSH10 0x34B99036B2BA3437B217 MUL SWAP3 DUP3 ADD SWAP3 SWAP1 SWAP3 MSTORE SWAP1 PUSH1 0xFF AND ISZERO ISZERO PUSH2 0x935 JUMPI PUSH1 0x40 MLOAD PUSH1 0xE5 PUSH1 0x2 EXP PUSH3 0x461BCD MUL DUP2 MSTORE PUSH1 0x4 ADD PUSH2 0x2B9 SWAP2 SWAP1 PUSH2 0x1542 JUMP JUMPDEST POP PUSH2 0x4F4 DUP6 DUP6 DUP1 DUP1 PUSH1 0x1F ADD PUSH1 0x20 DUP1 SWAP2 DIV MUL PUSH1 0x20 ADD PUSH1 0x40 MLOAD SWAP1 DUP2 ADD PUSH1 0x40 MSTORE DUP1 SWAP4 SWAP3 SWAP2 SWAP1 DUP2 DUP2 MSTORE PUSH1 0x20 ADD DUP4 DUP4 DUP1 DUP3 DUP5 CALLDATACOPY DUP3 ADD SWAP2 POP POP POP POP POP POP DUP5 DUP5 DUP5 PUSH2 0xA61 JUMP JUMPDEST PUSH1 0x2 JUMPDEST SWAP1 JUMP JUMPDEST PUSH1 0x1 PUSH1 0x20 MSTORE PUSH1 0x0 SWAP1 DUP2 MSTORE PUSH1 0x40 SWAP1 KECCAK256 SLOAD PUSH1 0xFF AND DUP2 JUMP JUMPDEST PUSH1 0x0 DUP1 PUSH2 0x99B DUP4 PUSH2 0xC8B JUMP JUMPDEST SWAP2 POP SWAP2 POP SWAP2 POP SWAP2 JUMP JUMPDEST PUSH1 0x60 PUSH1 0x2 DUP1 SLOAD DUP1 PUSH1 0x20 MUL PUSH1 0x20 ADD PUSH1 0x40 MLOAD SWAP1 DUP2 ADD PUSH1 0x40 MSTORE DUP1 SWAP3 SWAP2 SWAP1 DUP2 DUP2 MSTORE PUSH1 0x20 ADD DUP3 DUP1 SLOAD DUP1 ISZERO PUSH2 0x9FC JUMPI PUSH1 0x20 MUL DUP3 ADD SWAP2 SWAP1 PUSH1 0x0 MSTORE PUSH1 0x20 PUSH1 0x0 KECCAK256 SWAP1 JUMPDEST DUP2 SLOAD PUSH1 0x1 PUSH1 0xA0 PUSH1 0x2 EXP SUB AND DUP2 MSTORE PUSH1 0x1 SWAP1 SWAP2 ADD SWAP1 PUSH1 0x20 ADD DUP1 DUP4 GT PUSH2 0x9DE JUMPI JUMPDEST POP POP POP POP POP SWAP1 POP SWAP1 JUMP JUMPDEST PUSH1 0x0 SLOAD PUSH1 0x1 PUSH1 0xA0 PUSH1 0x2 EXP SUB AND CALLER EQ PUSH2 0xA33 JUMPI PUSH1 0x40 MLOAD PUSH1 0xE5 PUSH1 0x2 EXP PUSH3 0x461BCD MUL DUP2 MSTORE PUSH1 0x4 ADD PUSH2 0x2B9 SWAP1 PUSH2 0x1553 JUMP JUMPDEST PUSH1 0x1 PUSH1 0xA0 PUSH1 0x2 EXP SUB DUP2 AND ISZERO PUSH2 0xA5E JUMPI PUSH1 0x0 DUP1 SLOAD PUSH1 0x1 PUSH1 0xA0 PUSH1 0x2 EXP SUB NOT AND PUSH1 0x1 PUSH1 0xA0 PUSH1 0x2 EXP SUB DUP4 AND OR SWAP1 SSTORE JUMPDEST POP JUMP JUMPDEST PUSH1 0x0 DUP1 PUSH1 0x0 PUSH1 0x60 PUSH2 0xA71 DUP9 PUSH2 0xBC1 JUMP JUMPDEST PUSH1 0x40 DUP1 MLOAD PUSH1 0x60 DUP2 ADD DUP3 MSTORE PUSH1 0x32 DUP2 MSTORE PUSH32 0x50726F787920696420696E206D6574616461746120646F6573206E6F74206D61 PUSH1 0x20 DUP3 ADD MSTORE PUSH1 0x71 PUSH1 0x2 EXP PUSH18 0x3A31B4103A3434B990383937BC3C9034B217 MUL SWAP2 DUP2 ADD SWAP2 SWAP1 SWAP2 MSTORE SWAP4 SWAP8 POP SWAP2 SWAP6 POP SWAP4 POP SWAP2 POP PUSH1 0xFF DUP6 AND PUSH1 0x2 EQ PUSH2 0xAF6 JUMPI PUSH1 0x40 MLOAD PUSH1 0xE5 PUSH1 0x2 EXP PUSH3 0x461BCD MUL DUP2 MSTORE PUSH1 0x4 ADD PUSH2 0x2B9 SWAP2 SWAP1 PUSH2 0x1542 JUMP JUMPDEST POP PUSH1 0x40 DUP1 MLOAD DUP1 DUP3 ADD SWAP1 SWAP2 MSTORE PUSH1 0x1D DUP2 MSTORE PUSH32 0x5472616E7366657220616D6F756E74206D75737420657175616C20312E000000 PUSH1 0x20 DUP3 ADD MSTORE PUSH1 0x1 DUP7 EQ PUSH2 0xB4F JUMPI PUSH1 0x40 MLOAD PUSH1 0xE5 PUSH1 0x2 EXP PUSH3 0x461BCD MUL DUP2 MSTORE PUSH1 0x4 ADD PUSH2 0x2B9 SWAP2 SWAP1 PUSH2 0x1542 JUMP JUMPDEST POP PUSH1 0x40 MLOAD PUSH1 0xE1 PUSH1 0x2 EXP PUSH4 0x5C46A7EF MUL DUP2 MSTORE PUSH1 0x1 PUSH1 0xA0 PUSH1 0x2 EXP SUB DUP5 AND SWAP1 PUSH4 0xB88D4FDE SWAP1 PUSH2 0xB85 SWAP1 DUP11 SWAP1 DUP11 SWAP1 DUP8 SWAP1 DUP8 SWAP1 PUSH1 0x4 ADD PUSH2 0x14DF JUMP JUMPDEST PUSH1 0x0 PUSH1 0x40 MLOAD DUP1 DUP4 SUB DUP2 PUSH1 0x0 DUP8 DUP1 EXTCODESIZE ISZERO DUP1 ISZERO PUSH2 0xB9F JUMPI PUSH1 0x0 DUP1 REVERT JUMPDEST POP GAS CALL ISZERO DUP1 ISZERO PUSH2 0xBB3 JUMPI RETURNDATASIZE PUSH1 0x0 DUP1 RETURNDATACOPY RETURNDATASIZE PUSH1 0x0 REVERT JUMPDEST POP POP POP POP POP POP POP POP POP POP POP POP JUMP JUMPDEST PUSH1 0x0 DUP1 PUSH1 0x0 PUSH1 0x60 PUSH1 0x35 DUP6 MLOAD LT ISZERO PUSH1 0x60 PUSH1 0x40 MLOAD SWAP1 DUP2 ADD PUSH1 0x40 MSTORE DUP1 PUSH1 0x2D DUP2 MSTORE PUSH1 0x20 ADD PUSH1 0x0 DUP1 MLOAD PUSH1 0x20 PUSH2 0x166F DUP4 CODECOPY DUP2 MLOAD SWAP2 MSTORE DUP2 MSTORE PUSH1 0x20 ADD PUSH1 0x99 PUSH1 0x2 EXP PUSH13 0x1030BA103632B0B9BA101A9997 MUL DUP2 MSTORE POP SWAP1 ISZERO ISZERO PUSH2 0xC2F JUMPI PUSH1 0x40 MLOAD PUSH1 0xE5 PUSH1 0x2 EXP PUSH3 0x461BCD MUL DUP2 MSTORE PUSH1 0x4 ADD PUSH2 0x2B9 SWAP2 SWAP1 PUSH2 0x1542 JUMP JUMPDEST POP DUP5 PUSH1 0x0 DUP2 MLOAD DUP2 LT ISZERO ISZERO PUSH2 0xC3F JUMPI INVALID JUMPDEST ADD PUSH1 0x20 ADD MLOAD PUSH1 0xF8 PUSH1 0x2 EXP SWAP1 DUP2 SWAP1 DIV DUP2 MUL DIV SWAP4 POP PUSH2 0xC5D DUP6 PUSH1 0x1 PUSH2 0xD20 JUMP JUMPDEST SWAP3 POP PUSH2 0xC6A DUP6 PUSH1 0x15 PUSH2 0xDA6 JUMP JUMPDEST SWAP2 POP PUSH1 0x35 DUP6 MLOAD GT ISZERO PUSH2 0xC84 JUMPI PUSH2 0xC81 DUP6 PUSH1 0x35 PUSH2 0xDB9 JUMP JUMPDEST SWAP1 POP JUMPDEST SWAP2 SWAP4 POP SWAP2 SWAP4 JUMP JUMPDEST PUSH1 0x0 DUP1 DUP3 MLOAD PUSH1 0x15 EQ PUSH1 0x60 PUSH1 0x40 MLOAD SWAP1 DUP2 ADD PUSH1 0x40 MSTORE DUP1 PUSH1 0x24 DUP2 MSTORE PUSH1 0x20 ADD PUSH1 0x0 DUP1 MLOAD PUSH1 0x20 PUSH2 0x166F DUP4 CODECOPY DUP2 MLOAD SWAP2 MSTORE DUP2 MSTORE PUSH1 0x20 ADD PUSH1 0xE1 PUSH1 0x2 EXP PUSH4 0x10191897 MUL DUP2 MSTORE POP SWAP1 ISZERO ISZERO PUSH2 0xCEB JUMPI PUSH1 0x40 MLOAD PUSH1 0xE5 PUSH1 0x2 EXP PUSH3 0x461BCD MUL DUP2 MSTORE PUSH1 0x4 ADD PUSH2 0x2B9 SWAP2 SWAP1 PUSH2 0x1542 JUMP JUMPDEST POP DUP3 PUSH1 0x0 DUP2 MLOAD DUP2 LT ISZERO ISZERO PUSH2 0xCFB JUMPI INVALID JUMPDEST ADD PUSH1 0x20 ADD MLOAD PUSH1 0xF8 PUSH1 0x2 EXP SWAP1 DUP2 SWAP1 DIV DUP2 MUL DIV SWAP2 POP PUSH2 0xD19 DUP4 PUSH1 0x1 PUSH2 0xD20 JUMP JUMPDEST SWAP1 POP SWAP2 POP SWAP2 JUMP JUMPDEST PUSH1 0x0 DUP2 PUSH1 0x14 ADD DUP4 MLOAD LT ISZERO PUSH1 0x60 PUSH1 0x40 MLOAD SWAP1 DUP2 ADD PUSH1 0x40 MSTORE DUP1 PUSH1 0x2B DUP2 MSTORE PUSH1 0x20 ADD PUSH1 0x0 DUP1 MLOAD PUSH1 0x20 PUSH2 0x16CF DUP4 CODECOPY DUP2 MLOAD SWAP2 MSTORE DUP2 MSTORE PUSH1 0x20 ADD PUSH1 0xA9 PUSH1 0x2 EXP PUSH11 0x38BAB0B6103A3790191817 MUL DUP2 MSTORE POP SWAP1 ISZERO ISZERO PUSH2 0xD89 JUMPI PUSH1 0x40 MLOAD PUSH1 0xE5 PUSH1 0x2 EXP PUSH3 0x461BCD MUL DUP2 MSTORE PUSH1 0x4 ADD PUSH2 0x2B9 SWAP2 SWAP1 PUSH2 0x1542 JUMP JUMPDEST POP POP PUSH1 0x14 DUP2 DUP4 ADD DUP2 ADD MLOAD SWAP2 ADD SWAP1 PUSH1 0x1 PUSH1 0xA0 PUSH1 0x2 EXP SUB AND JUMPDEST SWAP3 SWAP2 POP POP JUMP JUMPDEST PUSH1 0x0 PUSH2 0xDB2 DUP4 DUP4 PUSH2 0xE91 JUMP JUMPDEST SWAP4 SWAP3 POP POP POP JUMP JUMPDEST PUSH1 0x60 PUSH1 0x0 PUSH2 0xDC7 DUP5 DUP5 PUSH2 0xDA6 JUMP JUMPDEST SWAP1 POP PUSH1 0x20 DUP4 ADD SWAP3 POP DUP1 DUP4 ADD DUP5 MLOAD LT ISZERO PUSH1 0x60 PUSH1 0x40 MLOAD SWAP1 DUP2 ADD PUSH1 0x40 MSTORE DUP1 PUSH1 0x2B DUP2 MSTORE PUSH1 0x20 ADD PUSH1 0x0 DUP1 MLOAD PUSH1 0x20 PUSH2 0x16CF DUP4 CODECOPY DUP2 MLOAD SWAP2 MSTORE DUP2 MSTORE PUSH1 0x20 ADD PUSH1 0xA9 PUSH1 0x2 EXP PUSH11 0x38BAB0B6103A3790199917 MUL DUP2 MSTORE POP SWAP1 ISZERO ISZERO PUSH2 0xE35 JUMPI PUSH1 0x40 MLOAD PUSH1 0xE5 PUSH1 0x2 EXP PUSH3 0x461BCD MUL DUP2 MSTORE PUSH1 0x4 ADD PUSH2 0x2B9 SWAP2 SWAP1 PUSH2 0x1542 JUMP JUMPDEST POP DUP1 PUSH1 0x40 MLOAD SWAP1 DUP1 DUP3 MSTORE DUP1 PUSH1 0x1F ADD PUSH1 0x1F NOT AND PUSH1 0x20 ADD DUP3 ADD PUSH1 0x40 MSTORE DUP1 ISZERO PUSH2 0xE64 JUMPI DUP2 PUSH1 0x20 ADD PUSH1 0x20 DUP3 MUL DUP1 CODESIZE DUP4 CODECOPY ADD SWAP1 POP JUMPDEST POP SWAP2 POP PUSH2 0xE8A PUSH2 0xE73 DUP4 PUSH2 0x977 JUMP JUMPDEST PUSH1 0x20 ADD DUP5 PUSH2 0xE80 DUP8 PUSH2 0x977 JUMP JUMPDEST ADD PUSH1 0x20 ADD DUP4 PUSH2 0xF04 JUMP JUMPDEST POP SWAP3 SWAP2 POP POP JUMP JUMPDEST PUSH1 0x0 DUP2 PUSH1 0x20 ADD DUP4 MLOAD LT ISZERO PUSH1 0x60 PUSH1 0x40 MLOAD SWAP1 DUP2 ADD PUSH1 0x40 MSTORE DUP1 PUSH1 0x2B DUP2 MSTORE PUSH1 0x20 ADD PUSH1 0x0 DUP1 MLOAD PUSH1 0x20 PUSH2 0x16CF DUP4 CODECOPY DUP2 MLOAD SWAP2 MSTORE DUP2 MSTORE PUSH1 0x20 ADD PUSH1 0xA9 PUSH1 0x2 EXP PUSH11 0x38BAB0B6103A3790199917 MUL DUP2 MSTORE POP SWAP1 ISZERO ISZERO PUSH2 0xEFA JUMPI PUSH1 0x40 MLOAD PUSH1 0xE5 PUSH1 0x2 EXP PUSH3 0x461BCD MUL DUP2 MSTORE PUSH1 0x4 ADD PUSH2 0x2B9 SWAP2 SWAP1 PUSH2 0x1542 JUMP JUMPDEST POP POP ADD PUSH1 0x20 ADD MLOAD SWAP1 JUMP JUMPDEST PUSH1 0x20 DUP2 LT ISZERO PUSH2 0xF2E JUMPI PUSH1 0x1 DUP2 PUSH1 0x20 SUB PUSH2 0x100 EXP SUB DUP1 NOT DUP4 MLOAD AND DUP2 DUP6 MLOAD AND DUP1 DUP3 OR DUP7 MSTORE POP POP POP PUSH2 0xFA5 JUMP JUMPDEST DUP3 DUP3 EQ ISZERO PUSH2 0xF3B JUMPI PUSH2 0xFA5 JUMP JUMPDEST DUP3 DUP3 GT ISZERO PUSH2 0xF75 JUMPI PUSH1 0x20 DUP2 SUB SWAP1 POP DUP1 DUP3 ADD DUP2 DUP5 ADD DUP2 MLOAD JUMPDEST DUP3 DUP6 LT ISZERO PUSH2 0xF6D JUMPI DUP5 MLOAD DUP7 MSTORE PUSH1 0x20 SWAP6 DUP7 ADD SWAP6 SWAP1 SWAP5 ADD SWAP4 PUSH2 0xF52 JUMP JUMPDEST SWAP1 MSTORE POP PUSH2 0xFA5 JUMP JUMPDEST PUSH1 0x20 DUP2 SUB SWAP1 POP DUP1 DUP3 ADD DUP2 DUP5 ADD DUP4 MLOAD JUMPDEST DUP3 DUP6 LT ISZERO PUSH2 0xFA0 JUMPI DUP3 MLOAD DUP3 MSTORE PUSH1 0x1F NOT SWAP3 DUP4 ADD SWAP3 SWAP1 SWAP2 ADD SWAP1 PUSH2 0xF84 JUMP JUMPDEST DUP6 MSTORE POP POP JUMPDEST POP POP POP JUMP JUMPDEST DUP2 SLOAD DUP2 DUP4 SSTORE DUP2 DUP2 GT ISZERO PUSH2 0xFA5 JUMPI PUSH1 0x0 DUP4 DUP2 MSTORE PUSH1 0x20 SWAP1 KECCAK256 PUSH2 0xFA5 SWAP2 DUP2 ADD SWAP1 DUP4 ADD PUSH2 0x977 SWAP2 SWAP1 JUMPDEST DUP1 DUP3 GT ISZERO PUSH2 0xFE3 JUMPI PUSH1 0x0 DUP2 SSTORE PUSH1 0x1 ADD PUSH2 0xFCF JUMP JUMPDEST POP SWAP1 JUMP JUMPDEST PUSH1 0x0 PUSH2 0xDB2 DUP3 CALLDATALOAD PUSH2 0x1611 JUMP JUMPDEST PUSH1 0x0 PUSH1 0x1F DUP3 ADD DUP4 SGT PUSH2 0x1004 JUMPI PUSH1 0x0 DUP1 REVERT JUMPDEST DUP2 CALLDATALOAD PUSH2 0x1017 PUSH2 0x1012 DUP3 PUSH2 0x15C0 JUMP JUMPDEST PUSH2 0x159A JUMP JUMPDEST SWAP2 POP DUP2 DUP2 DUP4 MSTORE PUSH1 0x20 DUP5 ADD SWAP4 POP PUSH1 0x20 DUP2 ADD SWAP1 POP DUP4 DUP6 PUSH1 0x20 DUP5 MUL DUP3 ADD GT ISZERO PUSH2 0x103C JUMPI PUSH1 0x0 DUP1 REVERT JUMPDEST PUSH1 0x0 JUMPDEST DUP4 DUP2 LT ISZERO PUSH2 0x1068 JUMPI DUP2 PUSH2 0x1052 DUP9 DUP3 PUSH2 0xFE7 JUMP JUMPDEST DUP5 MSTORE POP PUSH1 0x20 SWAP3 DUP4 ADD SWAP3 SWAP2 SWAP1 SWAP2 ADD SWAP1 PUSH1 0x1 ADD PUSH2 0x103F JUMP JUMPDEST POP POP POP POP SWAP3 SWAP2 POP POP JUMP JUMPDEST PUSH1 0x0 PUSH1 0x1F DUP3 ADD DUP4 SGT PUSH2 0x1083 JUMPI PUSH1 0x0 DUP1 REVERT JUMPDEST DUP2 CALLDATALOAD PUSH2 0x1091 PUSH2 0x1012 DUP3 PUSH2 0x15C0 JUMP JUMPDEST DUP2 DUP2 MSTORE PUSH1 0x20 SWAP4 DUP5 ADD SWAP4 SWAP1 SWAP3 POP DUP3 ADD DUP4 PUSH1 0x0 JUMPDEST DUP4 DUP2 LT ISZERO PUSH2 0x1068 JUMPI DUP2 CALLDATALOAD DUP7 ADD PUSH2 0x10B9 DUP9 DUP3 PUSH2 0x1187 JUMP JUMPDEST DUP5 MSTORE POP PUSH1 0x20 SWAP3 DUP4 ADD SWAP3 SWAP2 SWAP1 SWAP2 ADD SWAP1 PUSH1 0x1 ADD PUSH2 0x10A3 JUMP JUMPDEST PUSH1 0x0 PUSH1 0x1F DUP3 ADD DUP4 SGT PUSH2 0x10E0 JUMPI PUSH1 0x0 DUP1 REVERT JUMPDEST DUP2 CALLDATALOAD PUSH2 0x10EE PUSH2 0x1012 DUP3 PUSH2 0x15C0 JUMP JUMPDEST SWAP2 POP DUP2 DUP2 DUP4 MSTORE PUSH1 0x20 DUP5 ADD SWAP4 POP PUSH1 0x20 DUP2 ADD SWAP1 POP DUP4 DUP6 PUSH1 0x20 DUP5 MUL DUP3 ADD GT ISZERO PUSH2 0x1113 JUMPI PUSH1 0x0 DUP1 REVERT JUMPDEST PUSH1 0x0 JUMPDEST DUP4 DUP2 LT ISZERO PUSH2 0x1068 JUMPI DUP2 PUSH2 0x1129 DUP9 DUP3 PUSH2 0x11D6 JUMP JUMPDEST DUP5 MSTORE POP PUSH1 0x20 SWAP3 DUP4 ADD SWAP3 SWAP2 SWAP1 SWAP2 ADD SWAP1 PUSH1 0x1 ADD PUSH2 0x1116 JUMP JUMPDEST PUSH1 0x0 DUP1 PUSH1 0x1F DUP4 ADD DUP5 SGT PUSH2 0x1151 JUMPI PUSH1 0x0 DUP1 REVERT JUMPDEST POP DUP2 CALLDATALOAD PUSH1 0x1 PUSH1 0x40 PUSH1 0x2 EXP SUB DUP2 GT ISZERO PUSH2 0x1168 JUMPI PUSH1 0x0 DUP1 REVERT JUMPDEST PUSH1 0x20 DUP4 ADD SWAP2 POP DUP4 PUSH1 0x1 DUP3 MUL DUP4 ADD GT ISZERO PUSH2 0x1180 JUMPI PUSH1 0x0 DUP1 REVERT JUMPDEST SWAP3 POP SWAP3 SWAP1 POP JUMP JUMPDEST PUSH1 0x0 PUSH1 0x1F DUP3 ADD DUP4 SGT PUSH2 0x1198 JUMPI PUSH1 0x0 DUP1 REVERT JUMPDEST DUP2 CALLDATALOAD PUSH2 0x11A6 PUSH2 0x1012 DUP3 PUSH2 0x15E0 JUMP JUMPDEST SWAP2 POP DUP1 DUP3 MSTORE PUSH1 0x20 DUP4 ADD PUSH1 0x20 DUP4 ADD DUP6 DUP4 DUP4 ADD GT ISZERO PUSH2 0x11C2 JUMPI PUSH1 0x0 DUP1 REVERT JUMPDEST PUSH2 0x11CD DUP4 DUP3 DUP5 PUSH2 0x1628 JUMP JUMPDEST POP POP POP SWAP3 SWAP2 POP POP JUMP JUMPDEST PUSH1 0x0 PUSH2 0xDB2 DUP3 CALLDATALOAD PUSH2 0x977 JUMP JUMPDEST PUSH1 0x0 PUSH1 0x20 DUP3 DUP5 SUB SLT ISZERO PUSH2 0x11F4 JUMPI PUSH1 0x0 DUP1 REVERT JUMPDEST PUSH1 0x0 PUSH2 0x1200 DUP5 DUP5 PUSH2 0xFE7 JUMP JUMPDEST SWAP5 SWAP4 POP POP POP POP JUMP JUMPDEST PUSH1 0x0 DUP1 PUSH1 0x40 DUP4 DUP6 SUB SLT ISZERO PUSH2 0x121B JUMPI PUSH1 0x0 DUP1 REVERT JUMPDEST PUSH1 0x0 PUSH2 0x1227 DUP6 DUP6 PUSH2 0xFE7 JUMP JUMPDEST SWAP3 POP POP PUSH1 0x20 PUSH2 0x1238 DUP6 DUP3 DUP7 ADD PUSH2 0x11D6 JUMP JUMPDEST SWAP2 POP POP SWAP3 POP SWAP3 SWAP1 POP JUMP JUMPDEST PUSH1 0x0 DUP1 PUSH1 0x0 DUP1 PUSH1 0x80 DUP6 DUP8 SUB SLT ISZERO PUSH2 0x1258 JUMPI PUSH1 0x0 DUP1 REVERT JUMPDEST DUP5 CALLDATALOAD PUSH1 0x1 PUSH1 0x40 PUSH1 0x2 EXP SUB DUP2 GT ISZERO PUSH2 0x126E JUMPI PUSH1 0x0 DUP1 REVERT JUMPDEST PUSH2 0x127A DUP8 DUP3 DUP9 ADD PUSH2 0x1072 JUMP JUMPDEST SWAP5 POP POP PUSH1 0x20 DUP6 ADD CALLDATALOAD PUSH1 0x1 PUSH1 0x40 PUSH1 0x2 EXP SUB DUP2 GT ISZERO PUSH2 0x1296 JUMPI PUSH1 0x0 DUP1 REVERT JUMPDEST PUSH2 0x12A2 DUP8 DUP3 DUP9 ADD PUSH2 0xFF3 JUMP JUMPDEST SWAP4 POP POP PUSH1 0x40 DUP6 ADD CALLDATALOAD PUSH1 0x1 PUSH1 0x40 PUSH1 0x2 EXP SUB DUP2 GT ISZERO PUSH2 0x12BE JUMPI PUSH1 0x0 DUP1 REVERT JUMPDEST PUSH2 0x12CA DUP8 DUP3 DUP9 ADD PUSH2 0xFF3 JUMP JUMPDEST SWAP3 POP POP PUSH1 0x60 DUP6 ADD CALLDATALOAD PUSH1 0x1 PUSH1 0x40 PUSH1 0x2 EXP SUB DUP2 GT ISZERO PUSH2 0x12E6 JUMPI PUSH1 0x0 DUP1 REVERT JUMPDEST PUSH2 0x12F2 DUP8 DUP3 DUP9 ADD PUSH2 0x10CF JUMP JUMPDEST SWAP2 POP POP SWAP3 SWAP6 SWAP2 SWAP5 POP SWAP3 POP JUMP JUMPDEST PUSH1 0x0 DUP1 PUSH1 0x0 DUP1 PUSH1 0x0 PUSH1 0x80 DUP7 DUP9 SUB SLT ISZERO PUSH2 0x1316 JUMPI PUSH1 0x0 DUP1 REVERT JUMPDEST DUP6 CALLDATALOAD PUSH1 0x1 PUSH1 0x40 PUSH1 0x2 EXP SUB DUP2 GT ISZERO PUSH2 0x132C JUMPI PUSH1 0x0 DUP1 REVERT JUMPDEST PUSH2 0x1338 DUP9 DUP3 DUP10 ADD PUSH2 0x113F JUMP JUMPDEST SWAP6 POP SWAP6 POP POP PUSH1 0x20 PUSH2 0x134B DUP9 DUP3 DUP10 ADD PUSH2 0xFE7 JUMP JUMPDEST SWAP4 POP POP PUSH1 0x40 PUSH2 0x135C DUP9 DUP3 DUP10 ADD PUSH2 0xFE7 JUMP JUMPDEST SWAP3 POP POP PUSH1 0x60 PUSH2 0x136D DUP9 DUP3 DUP10 ADD PUSH2 0x11D6 JUMP JUMPDEST SWAP2 POP POP SWAP3 SWAP6 POP SWAP3 SWAP6 SWAP1 SWAP4 POP JUMP JUMPDEST PUSH1 0x0 PUSH1 0x20 DUP3 DUP5 SUB SLT ISZERO PUSH2 0x138C JUMPI PUSH1 0x0 DUP1 REVERT JUMPDEST DUP2 CALLDATALOAD PUSH1 0x1 PUSH1 0x40 PUSH1 0x2 EXP SUB DUP2 GT ISZERO PUSH2 0x13A2 JUMPI PUSH1 0x0 DUP1 REVERT JUMPDEST PUSH2 0x1200 DUP5 DUP3 DUP6 ADD PUSH2 0x1187 JUMP JUMPDEST PUSH1 0x0 PUSH1 0x20 DUP3 DUP5 SUB SLT ISZERO PUSH2 0x13C0 JUMPI PUSH1 0x0 DUP1 REVERT JUMPDEST PUSH1 0x0 PUSH2 0x1200 DUP5 DUP5 PUSH2 0x11D6 JUMP JUMPDEST PUSH2 0x13D5 DUP2 PUSH2 0x1611 JUMP JUMPDEST DUP3 MSTORE POP POP JUMP JUMPDEST PUSH1 0x0 PUSH2 0x13E6 DUP3 PUSH2 0x160D JUMP JUMPDEST DUP1 DUP5 MSTORE PUSH1 0x20 DUP5 ADD SWAP4 POP PUSH2 0x13F8 DUP4 PUSH2 0x1607 JUMP JUMPDEST PUSH1 0x0 JUMPDEST DUP3 DUP2 LT ISZERO PUSH2 0x1428 JUMPI PUSH2 0x140E DUP7 DUP4 MLOAD PUSH2 0x13CC JUMP JUMPDEST PUSH2 0x1417 DUP3 PUSH2 0x1607 JUMP JUMPDEST PUSH1 0x20 SWAP7 SWAP1 SWAP7 ADD SWAP6 SWAP2 POP PUSH1 0x1 ADD PUSH2 0x13FB JUMP JUMPDEST POP SWAP4 SWAP5 SWAP4 POP POP POP POP JUMP JUMPDEST PUSH2 0x13D5 DUP2 PUSH2 0x161D JUMP JUMPDEST PUSH1 0x0 PUSH2 0x1446 DUP3 PUSH2 0x160D JUMP JUMPDEST DUP1 DUP5 MSTORE PUSH2 0x145A DUP2 PUSH1 0x20 DUP7 ADD PUSH1 0x20 DUP7 ADD PUSH2 0x1634 JUMP JUMPDEST PUSH2 0x1463 DUP2 PUSH2 0x1664 JUMP JUMPDEST SWAP1 SWAP4 ADD PUSH1 0x20 ADD SWAP4 SWAP3 POP POP POP JUMP JUMPDEST PUSH1 0x33 DUP2 MSTORE PUSH32 0x4F6E6C7920636F6E7472616374206F776E657220697320616C6C6F7765642074 PUSH1 0x20 DUP3 ADD MSTORE PUSH1 0x69 PUSH1 0x2 EXP PUSH19 0x379031B0B636103A3434B99036B2BA3437B217 MUL PUSH1 0x40 DUP3 ADD MSTORE PUSH1 0x60 ADD SWAP1 JUMP JUMPDEST PUSH2 0x13D5 DUP2 PUSH2 0x977 JUMP JUMPDEST PUSH2 0x13D5 DUP2 PUSH2 0x1622 JUMP JUMPDEST PUSH1 0x20 DUP2 ADD PUSH2 0xDA0 DUP3 DUP5 PUSH2 0x13CC JUMP JUMPDEST PUSH1 0x80 DUP2 ADD PUSH2 0x14ED DUP3 DUP8 PUSH2 0x13CC JUMP JUMPDEST PUSH2 0x14FA PUSH1 0x20 DUP4 ADD DUP7 PUSH2 0x13CC JUMP JUMPDEST PUSH2 0x1507 PUSH1 0x40 DUP4 ADD DUP6 PUSH2 0x14BF JUMP JUMPDEST DUP2 DUP2 SUB PUSH1 0x60 DUP4 ADD MSTORE PUSH2 0x1519 DUP2 DUP5 PUSH2 0x143B JUMP JUMPDEST SWAP7 SWAP6 POP POP POP POP POP POP JUMP JUMPDEST PUSH1 0x20 DUP1 DUP3 MSTORE DUP2 ADD PUSH2 0xDB2 DUP2 DUP5 PUSH2 0x13DB JUMP JUMPDEST PUSH1 0x20 DUP2 ADD PUSH2 0xDA0 DUP3 DUP5 PUSH2 0x1432 JUMP JUMPDEST PUSH1 0x20 DUP1 DUP3 MSTORE DUP2 ADD PUSH2 0xDB2 DUP2 DUP5 PUSH2 0x143B JUMP JUMPDEST PUSH1 0x20 DUP1 DUP3 MSTORE DUP2 ADD PUSH2 0xDA0 DUP2 PUSH2 0x1470 JUMP JUMPDEST PUSH1 0x20 DUP2 ADD PUSH2 0xDA0 DUP3 DUP5 PUSH2 0x14C8 JUMP JUMPDEST PUSH1 0x40 DUP2 ADD PUSH2 0x157F DUP3 DUP6 PUSH2 0x14C8 JUMP JUMPDEST PUSH2 0xDB2 PUSH1 0x20 DUP4 ADD DUP5 PUSH2 0x13CC JUMP JUMPDEST PUSH1 0x80 DUP2 ADD PUSH2 0x14ED DUP3 DUP8 PUSH2 0x14C8 JUMP JUMPDEST PUSH1 0x40 MLOAD DUP2 DUP2 ADD PUSH1 0x1 PUSH1 0x40 PUSH1 0x2 EXP SUB DUP2 GT DUP3 DUP3 LT OR ISZERO PUSH2 0x15B8 JUMPI PUSH1 0x0 DUP1 REVERT JUMPDEST PUSH1 0x40 MSTORE SWAP2 SWAP1 POP JUMP JUMPDEST PUSH1 0x0 PUSH1 0x1 PUSH1 0x40 PUSH1 0x2 EXP SUB DUP3 GT ISZERO PUSH2 0x15D6 JUMPI PUSH1 0x0 DUP1 REVERT JUMPDEST POP PUSH1 0x20 SWAP1 DUP2 MUL ADD SWAP1 JUMP JUMPDEST PUSH1 0x0 PUSH1 0x1 PUSH1 0x40 PUSH1 0x2 EXP SUB DUP3 GT ISZERO PUSH2 0x15F6 JUMPI PUSH1 0x0 DUP1 REVERT JUMPDEST POP PUSH1 0x20 PUSH1 0x1F SWAP2 SWAP1 SWAP2 ADD PUSH1 0x1F NOT AND ADD SWAP1 JUMP JUMPDEST PUSH1 0x20 ADD SWAP1 JUMP JUMPDEST MLOAD SWAP1 JUMP JUMPDEST PUSH1 0x1 PUSH1 0xA0 PUSH1 0x2 EXP SUB AND SWAP1 JUMP JUMPDEST ISZERO ISZERO SWAP1 JUMP JUMPDEST PUSH1 0xFF AND SWAP1 JUMP JUMPDEST DUP3 DUP2 DUP4 CALLDATACOPY POP PUSH1 0x0 SWAP2 ADD MSTORE JUMP JUMPDEST PUSH1 0x0 JUMPDEST DUP4 DUP2 LT ISZERO PUSH2 0x164F JUMPI DUP2 DUP2 ADD MLOAD DUP4 DUP3 ADD MSTORE PUSH1 0x20 ADD PUSH2 0x1637 JUMP JUMPDEST DUP4 DUP2 GT ISZERO PUSH2 0x165E JUMPI PUSH1 0x0 DUP5 DUP5 ADD MSTORE JUMPDEST POP POP POP POP JUMP JUMPDEST PUSH1 0x1F ADD PUSH1 0x1F NOT AND SWAP1 JUMP STOP COINBASE PUSH20 0x7365742064617461206D75737420686176652061 KECCAK256 PUSH13 0x656E677468206F6653656E6465 PUSH19 0x206E6F7420617574686F72697A656420746F20 PUSH4 0x616C6C20 PUSH21 0x681F32C1B084E2DE0713B8FB16BD46BB9DF710A3DB 0xea 0xe2 RETURN 0xca SWAP4 0xaf 0x46 0xe0 AND 0xdc 0xc6 0xb0 0x4c PUSH6 0x6E677468206D PUSH22 0x73742062652067726561746572207468616E206F7220 PUSH6 0xA265627A7A72 ADDRESS PC KECCAK256 0xab 0xad 0xc8 0xdd PUSH31 0xA3B1875609E22A630D8BDB92447DE368278083CCD6F1B40D3F2BB86C657870 PUSH6 0x72696D656E74 PUSH2 0x6CF5 STOP CALLDATACOPY "
			}
		}
	},
	"sourceTreeHashHex": "0xa88b96bdb828691f23592d114e78b981a9e01633a642c091bc0473010aa5f14c",
	"compiler": {
		"name": "solc",
		"version": "0.4.24",
		"settings": {
			"optimizer": {
				"enabled": true,
				"runs": 0
			},
			"outputSelection": {
				"*": {
					"*": [
						"abi",
						"evm.bytecode.object",
						"evm.bytecode.sourceMap",
						"evm.deployedBytecode.object",
						"evm.deployedBytecode.sourceMap"
					]
				}
			}
		}
	}
}