{
	"schemaVersion": "2.0.0",
	"contractName": "TestLibAssetProxyDecoder",
	"compilerOutput": {
		"abi": [
			{
				"constant": true,
				"inputs": [
					{
						"name": "proxyData",
						"type": "bytes"
					}
				],
				"name": "publicDecodeERC721Data",
				"outputs": [
					{
						"name": "",
						"type": "uint8"
					},
					{
						"name": "",
						"type": "address"
					},
					{
						"name": "",
						"type": "uint256"
					},
					{
						"name": "",
						"type": "bytes"
					}
				],
				"payable": false,
				"stateMutability": "pure",
				"type": "function"
			},
			{
				"constant": true,
				"inputs": [
					{
						"name": "proxyData",
						"type": "bytes"
					}
				],
				"name": "publicDecodeERC20Data",
				"outputs": [
					{
						"name": "",
						"type": "uint8"
					},
					{
						"name": "",
						"type": "address"
					}
				],
				"payable": false,
				"stateMutability": "pure",
				"type": "function"
			}
		],
		"evm": {
			"bytecode": {
				"linkReferences": {},
				"object": "0x608060405234801561001057600080fd5b50610736806100206000396000f3006080604052600436106100325763ffffffff60e060020a60003504166372c2f5278114610037578063bd27c22d14610070575b600080fd5b34801561004357600080fd5b50610057610052366004610531565b61009e565b60405161006794939291906105ef565b60405180910390f35b34801561007c57600080fd5b5061009061008b366004610531565b6100bd565b6040516100679291906105d4565b600080600060606100ae856100d2565b93509350935093509193509193565b6000806100c9836101b5565b91509150915091565b60008060006060603585511015606060405190810160405280602b81526020017f4d65746164617461206d75737420686176652061206c656e677468206f662061815260200160a960020a6a3a103632b0b9ba101a9997028152509015156101595760405160e560020a62461bcd02815260040161015091906105c3565b60405180910390fd5b5084600081518110151561016957fe5b016020015160f860020a90819004810204935061018785600161025a565b92506101948560156102d6565b91506035855111156101ae576101ab8560356102e9565b90505b9193509193565b6000808251601514606060405190810160405280602281526020017f4d65746164617461206d75737420686176652061206c656e677468206f662032815260200160f160020a611897028152509015156102255760405160e560020a62461bcd02815260040161015091906105c3565b5082600081518110151561023557fe5b016020015160f860020a90819004810204915061025383600161025a565b9050915091565b60008160140183511015606060405190810160405280602b81526020016000805160206106dd833981519152815260200160a960020a6a38bab0b6103a3790191817028152509015156102c35760405160e560020a62461bcd02815260040161015091906105c3565b50500160140151600160a060020a031690565b60006102e283836103c1565b9392505050565b606060006102f784846102d6565b905060208301925080830184511015606060405190810160405280602b81526020016000805160206106dd833981519152815260200160a960020a6a38bab0b6103a3790199917028152509015156103655760405160e560020a62461bcd02815260040161015091906105c3565b50806040519080825280601f01601f191660200182016040528015610394578160200160208202803883390190505b5091506103ba6103a383610434565b602001846103b087610434565b0160200183610437565b5092915050565b60008160200183511015606060405190810160405280602b81526020016000805160206106dd833981519152815260200160a960020a6a38bab0b6103a37901999170281525090151561042a5760405160e560020a62461bcd02815260040161015091906105c3565b5050016020015190565b90565b6020811015610461576001816020036101000a0380198351168185511680821786525050506104d8565b8282141561046e576104d8565b828211156104a85760208103905080820181840181515b828510156104a0578451865260209586019590940193610485565b9052506104d8565b60208103905080820181840183515b828510156104d35782518252601f1992830192909101906104b7565b855250505b505050565b6000601f820183136104ee57600080fd5b81356105016104fc82610659565b610633565b9150808252602083016020830185838301111561051d57600080fd5b610528838284610696565b50505092915050565b60006020828403121561054357600080fd5b81356001604060020a0381111561055957600080fd5b610565848285016104dd565b949350505050565b61057681610684565b82525050565b600061058782610680565b80845261059b8160208601602086016106a2565b6105a4816106d2565b9093016020019392505050565b61057681610434565b61057681610690565b602080825281016102e2818461057c565b604081016105e282856105ba565b6102e2602083018461056d565b608081016105fd82876105ba565b61060a602083018661056d565b61061760408301856105b1565b8181036060830152610629818461057c565b9695505050505050565b6040518181016001604060020a038111828210171561065157600080fd5b604052919050565b60006001604060020a0382111561066f57600080fd5b506020601f91909101601f19160190565b5190565b600160a060020a031690565b60ff1690565b82818337506000910152565b60005b838110156106bd5781810151838201526020016106a5565b838111156106cc576000848401525b50505050565b601f01601f19169056004c656e677468206d7573742062652067726561746572207468616e206f722065a265627a7a723058203b961434461c14507b38ab3e987ab9cfd432e720f34ada487c55f558e63e81586c6578706572696d656e74616cf50037",
				"opcodes": "PUSH1 0x80 PUSH1 0x40 MSTORE CALLVALUE DUP1 ISZERO PUSH2 0x10 JUMPI PUSH1 0x0 DUP1 REVERT JUMPDEST POP PUSH2 0x736 DUP1 PUSH2 0x20 PUSH1 0x0 CODECOPY PUSH1 0x0 RETURN STOP PUSH1 0x80 PUSH1 0x40 MSTORE PUSH1 0x4 CALLDATASIZE LT PUSH2 0x32 JUMPI PUSH4 0xFFFFFFFF PUSH1 0xE0 PUSH1 0x2 EXP PUSH1 0x0 CALLDATALOAD DIV AND PUSH4 0x72C2F527 DUP2 EQ PUSH2 0x37 JUMPI DUP1 PUSH4 0xBD27C22D EQ PUSH2 0x70 JUMPI JUMPDEST PUSH1 0x0 DUP1 REVERT JUMPDEST CALLVALUE DUP1 ISZERO PUSH2 0x43 JUMPI PUSH1 0x0 DUP1 REVERT JUMPDEST POP PUSH2 0x57 PUSH2 0x52 CALLDATASIZE PUSH1 0x4 PUSH2 0x531 JUMP JUMPDEST PUSH2 0x9E JUMP JUMPDEST PUSH1 0x40 MLOAD PUSH2 0x67 SWAP5 SWAP4 SWAP3 SWAP2 SWAP1 PUSH2 0x5EF JUMP JUMPDEST PUSH1 0x40 MLOAD DUP1 SWAP2 SUB SWAP1 RETURN JUMPDEST CALLVALUE DUP1 ISZERO PUSH2 0x7C JUMPI PUSH1 0x0 DUP1 REVERT JUMPDEST POP PUSH2 0x90 PUSH2 0x8B CALLDATASIZE PUSH1 0x4 PUSH2 0x531 JUMP JUMPDEST PUSH2 0xBD JUMP JUMPDEST PUSH1 0x40 MLOAD PUSH2 0x67 SWAP3 SWAP2 SWAP1 PUSH2 0x5D4 JUMP JUMPDEST PUSH1 0x0 DUP1 PUSH1 0x0 PUSH1 0x60 PUSH2 0xAE DUP6 PUSH2 0xD2 JUMP JUMPDEST SWAP4 POP SWAP4 POP SWAP4 POP SWAP4 POP SWAP2 SWAP4 POP SWAP2 SWAP4 JUMP JUMPDEST PUSH1 0x0 DUP1 PUSH2 0xC9 DUP4 PUSH2 0x1B5 JUMP JUMPDEST SWAP2 POP SWAP2 POP SWAP2 POP SWAP2 JUMP JUMPDEST PUSH1 0x0 DUP1 PUSH1 0x0 PUSH1 0x60 PUSH1 0x35 DUP6 MLOAD LT ISZERO PUSH1 0x60 PUSH1 0x40 MLOAD SWAP1 DUP2 ADD PUSH1 0x40 MSTORE DUP1 PUSH1 0x2B DUP2 MSTORE PUSH1 0x20 ADD PUSH32 0x4D65746164617461206D75737420686176652061206C656E677468206F662061 DUP2 MSTORE PUSH1 0x20 ADD PUSH1 0xA9 PUSH1 0x2 EXP PUSH11 0x3A103632B0B9BA101A9997 MUL DUP2 MSTORE POP SWAP1 ISZERO ISZERO PUSH2 0x159 JUMPI PUSH1 0x40 MLOAD PUSH1 0xE5 PUSH1 0x2 EXP PUSH3 0x461BCD MUL DUP2 MSTORE PUSH1 0x4 ADD PUSH2 0x150 SWAP2 SWAP1 PUSH2 0x5C3 JUMP JUMPDEST PUSH1 0x40 MLOAD DUP1 SWAP2 SUB SWAP1 REVERT JUMPDEST POP DUP5 PUSH1 0x0 DUP2 MLOAD DUP2 LT ISZERO ISZERO PUSH2 0x169 JUMPI INVALID JUMPDEST ADD PUSH1 0x20 ADD MLOAD PUSH1 0xF8 PUSH1 0x2 EXP SWAP1 DUP2 SWAP1 DIV DUP2 MUL DIV SWAP4 POP PUSH2 0x187 DUP6 PUSH1 0x1 PUSH2 0x25A JUMP JUMPDEST SWAP3 POP PUSH2 0x194 DUP6 PUSH1 0x15 PUSH2 0x2D6 JUMP JUMPDEST SWAP2 POP PUSH1 0x35 DUP6 MLOAD GT ISZERO PUSH2 0x1AE JUMPI PUSH2 0x1AB DUP6 PUSH1 0x35 PUSH2 0x2E9 JUMP JUMPDEST SWAP1 POP JUMPDEST SWAP2 SWAP4 POP SWAP2 SWAP4 JUMP JUMPDEST PUSH1 0x0 DUP1 DUP3 MLOAD PUSH1 0x15 EQ PUSH1 0x60 PUSH1 0x40 MLOAD SWAP1 DUP2 ADD PUSH1 0x40 MSTORE DUP1 PUSH1 0x22 DUP2 MSTORE PUSH1 0x20 ADD PUSH32 0x4D65746164617461206D75737420686176652061206C656E677468206F662032 DUP2 MSTORE PUSH1 0x20 ADD PUSH1 0xF1 PUSH1 0x2 EXP PUSH2 0x1897 MUL DUP2 MSTORE POP SWAP1 ISZERO ISZERO PUSH2 0x225 JUMPI PUSH1 0x40 MLOAD PUSH1 0xE5 PUSH1 0x2 EXP PUSH3 0x461BCD MUL DUP2 MSTORE PUSH1 0x4 ADD PUSH2 0x150 SWAP2 SWAP1 PUSH2 0x5C3 JUMP JUMPDEST POP DUP3 PUSH1 0x0 DUP2 MLOAD DUP2 LT ISZERO ISZERO PUSH2 0x235 JUMPI INVALID JUMPDEST ADD PUSH1 0x20 ADD MLOAD PUSH1 0xF8 PUSH1 0x2 EXP SWAP1 DUP2 SWAP1 DIV DUP2 MUL DIV SWAP2 POP PUSH2 0x253 DUP4 PUSH1 0x1 PUSH2 0x25A JUMP JUMPDEST SWAP1 POP SWAP2 POP SWAP2 JUMP JUMPDEST PUSH1 0x0 DUP2 PUSH1 0x14 ADD DUP4 MLOAD LT ISZERO PUSH1 0x60 PUSH1 0x40 MLOAD SWAP1 DUP2 ADD PUSH1 0x40 MSTORE DUP1 PUSH1 0x2B DUP2 MSTORE PUSH1 0x20 ADD PUSH1 0x0 DUP1 MLOAD PUSH1 0x20 PUSH2 0x6DD DUP4 CODECOPY DUP2 MLOAD SWAP2 MSTORE DUP2 MSTORE PUSH1 0x20 ADD PUSH1 0xA9 PUSH1 0x2 EXP PUSH11 0x38BAB0B6103A3790191817 MUL DUP2 MSTORE POP SWAP1 ISZERO ISZERO PUSH2 0x2C3 JUMPI PUSH1 0x40 MLOAD PUSH1 0xE5 PUSH1 0x2 EXP PUSH3 0x461BCD MUL DUP2 MSTORE PUSH1 0x4 ADD PUSH2 0x150 SWAP2 SWAP1 PUSH2 0x5C3 JUMP JUMPDEST POP POP ADD PUSH1 0x14 ADD MLOAD PUSH1 0x1 PUSH1 0xA0 PUSH1 0x2 EXP SUB AND SWAP1 JUMP JUMPDEST PUSH1 0x0 PUSH2 0x2E2 DUP4 DUP4 PUSH2 0x3C1 JUMP JUMPDEST SWAP4 SWAP3 POP POP POP JUMP JUMPDEST PUSH1 0x60 PUSH1 0x0 PUSH2 0x2F7 DUP5 DUP5 PUSH2 0x2D6 JUMP JUMPDEST SWAP1 POP PUSH1 0x20 DUP4 ADD SWAP3 POP DUP1 DUP4 ADD DUP5 MLOAD LT ISZERO PUSH1 0x60 PUSH1 0x40 MLOAD SWAP1 DUP2 ADD PUSH1 0x40 MSTORE DUP1 PUSH1 0x2B DUP2 MSTORE PUSH1 0x20 ADD PUSH1 0x0 DUP1 MLOAD PUSH1 0x20 PUSH2 0x6DD DUP4 CODECOPY DUP2 MLOAD SWAP2 MSTORE DUP2 MSTORE PUSH1 0x20 ADD PUSH1 0xA9 PUSH1 0x2 EXP PUSH11 0x38BAB0B6103A3790199917 MUL DUP2 MSTORE POP SWAP1 ISZERO ISZERO PUSH2 0x365 JUMPI PUSH1 0x40 MLOAD PUSH1 0xE5 PUSH1 0x2 EXP PUSH3 0x461BCD MUL DUP2 MSTORE PUSH1 0x4 ADD PUSH2 0x150 SWAP2 SWAP1 PUSH2 0x5C3 JUMP JUMPDEST POP DUP1 PUSH1 0x40 MLOAD SWAP1 DUP1 DUP3 MSTORE DUP1 PUSH1 0x1F ADD PUSH1 0x1F NOT AND PUSH1 0x20 ADD DUP3 ADD PUSH1 0x40 MSTORE DUP1 ISZERO PUSH2 0x394 JUMPI DUP2 PUSH1 0x20 ADD PUSH1 0x20 DUP3 MUL DUP1 CODESIZE DUP4 CODECOPY ADD SWAP1 POP JUMPDEST POP SWAP2 POP PUSH2 0x3BA PUSH2 0x3A3 DUP4 PUSH2 0x434 JUMP JUMPDEST PUSH1 0x20 ADD DUP5 PUSH2 0x3B0 DUP8 PUSH2 0x434 JUMP JUMPDEST ADD PUSH1 0x20 ADD DUP4 PUSH2 0x437 JUMP JUMPDEST POP SWAP3 SWAP2 POP POP JUMP JUMPDEST PUSH1 0x0 DUP2 PUSH1 0x20 ADD DUP4 MLOAD LT ISZERO PUSH1 0x60 PUSH1 0x40 MLOAD SWAP1 DUP2 ADD PUSH1 0x40 MSTORE DUP1 PUSH1 0x2B DUP2 MSTORE PUSH1 0x20 ADD PUSH1 0x0 DUP1 MLOAD PUSH1 0x20 PUSH2 0x6DD DUP4 CODECOPY DUP2 MLOAD SWAP2 MSTORE DUP2 MSTORE PUSH1 0x20 ADD PUSH1 0xA9 PUSH1 0x2 EXP PUSH11 0x38BAB0B6103A3790199917 MUL DUP2 MSTORE POP SWAP1 ISZERO ISZERO PUSH2 0x42A JUMPI PUSH1 0x40 MLOAD PUSH1 0xE5 PUSH1 0x2 EXP PUSH3 0x461BCD MUL DUP2 MSTORE PUSH1 0x4 ADD PUSH2 0x150 SWAP2 SWAP1 PUSH2 0x5C3 JUMP JUMPDEST POP POP ADD PUSH1 0x20 ADD MLOAD SWAP1 JUMP JUMPDEST SWAP1 JUMP JUMPDEST PUSH1 0x20 DUP2 LT ISZERO PUSH2 0x461 JUMPI PUSH1 0x1 DUP2 PUSH1 0x20 SUB PUSH2 0x100 EXP SUB DUP1 NOT DUP4 MLOAD AND DUP2 DUP6 MLOAD AND DUP1 DUP3 OR DUP7 MSTORE POP POP POP PUSH2 0x4D8 JUMP JUMPDEST DUP3 DUP3 EQ ISZERO PUSH2 0x46E JUMPI PUSH2 0x4D8 JUMP JUMPDEST DUP3 DUP3 GT ISZERO PUSH2 0x4A8 JUMPI PUSH1 0x20 DUP2 SUB SWAP1 POP DUP1 DUP3 ADD DUP2 DUP5 ADD DUP2 MLOAD JUMPDEST DUP3 DUP6 LT ISZERO PUSH2 0x4A0 JUMPI DUP5 MLOAD DUP7 MSTORE PUSH1 0x20 SWAP6 DUP7 ADD SWAP6 SWAP1 SWAP5 ADD SWAP4 PUSH2 0x485 JUMP JUMPDEST SWAP1 MSTORE POP PUSH2 0x4D8 JUMP JUMPDEST PUSH1 0x20 DUP2 SUB SWAP1 POP DUP1 DUP3 ADD DUP2 DUP5 ADD DUP4 MLOAD JUMPDEST DUP3 DUP6 LT ISZERO PUSH2 0x4D3 JUMPI DUP3 MLOAD DUP3 MSTORE PUSH1 0x1F NOT SWAP3 DUP4 ADD SWAP3 SWAP1 SWAP2 ADD SWAP1 PUSH2 0x4B7 JUMP JUMPDEST DUP6 MSTORE POP POP JUMPDEST POP POP POP JUMP JUMPDEST PUSH1 0x0 PUSH1 0x1F DUP3 ADD DUP4 SGT PUSH2 0x4EE JUMPI PUSH1 0x0 DUP1 REVERT JUMPDEST DUP2 CALLDATALOAD PUSH2 0x501 PUSH2 0x4FC DUP3 PUSH2 0x659 JUMP JUMPDEST PUSH2 0x633 JUMP JUMPDEST SWAP2 POP DUP1 DUP3 MSTORE PUSH1 0x20 DUP4 ADD PUSH1 0x20 DUP4 ADD DUP6 DUP4 DUP4 ADD GT ISZERO PUSH2 0x51D JUMPI PUSH1 0x0 DUP1 REVERT JUMPDEST PUSH2 0x528 DUP4 DUP3 DUP5 PUSH2 0x696 JUMP JUMPDEST POP POP POP SWAP3 SWAP2 POP POP JUMP JUMPDEST PUSH1 0x0 PUSH1 0x20 DUP3 DUP5 SUB SLT ISZERO PUSH2 0x543 JUMPI PUSH1 0x0 DUP1 REVERT JUMPDEST DUP2 CALLDATALOAD PUSH1 0x1 PUSH1 0x40 PUSH1 0x2 EXP SUB DUP2 GT ISZERO PUSH2 0x559 JUMPI PUSH1 0x0 DUP1 REVERT JUMPDEST PUSH2 0x565 DUP5 DUP3 DUP6 ADD PUSH2 0x4DD JUMP JUMPDEST SWAP5 SWAP4 POP POP POP POP JUMP JUMPDEST PUSH2 0x576 DUP2 PUSH2 0x684 JUMP JUMPDEST DUP3 MSTORE POP POP JUMP JUMPDEST PUSH1 0x0 PUSH2 0x587 DUP3 PUSH2 0x680 JUMP JUMPDEST DUP1 DUP5 MSTORE PUSH2 0x59B DUP2 PUSH1 0x20 DUP7 ADD PUSH1 0x20 DUP7 ADD PUSH2 0x6A2 JUMP JUMPDEST PUSH2 0x5A4 DUP2 PUSH2 0x6D2 JUMP JUMPDEST SWAP1 SWAP4 ADD PUSH1 0x20 ADD SWAP4 SWAP3 POP POP POP JUMP JUMPDEST PUSH2 0x576 DUP2 PUSH2 0x434 JUMP JUMPDEST PUSH2 0x576 DUP2 PUSH2 0x690 JUMP JUMPDEST PUSH1 0x20 DUP1 DUP3 MSTORE DUP2 ADD PUSH2 0x2E2 DUP2 DUP5 PUSH2 0x57C JUMP JUMPDEST PUSH1 0x40 DUP2 ADD PUSH2 0x5E2 DUP3 DUP6 PUSH2 0x5BA JUMP JUMPDEST PUSH2 0x2E2 PUSH1 0x20 DUP4 ADD DUP5 PUSH2 0x56D JUMP JUMPDEST PUSH1 0x80 DUP2 ADD PUSH2 0x5FD DUP3 DUP8 PUSH2 0x5BA JUMP JUMPDEST PUSH2 0x60A PUSH1 0x20 DUP4 ADD DUP7 PUSH2 0x56D JUMP JUMPDEST PUSH2 0x617 PUSH1 0x40 DUP4 ADD DUP6 PUSH2 0x5B1 JUMP JUMPDEST DUP2 DUP2 SUB PUSH1 0x60 DUP4 ADD MSTORE PUSH2 0x629 DUP2 DUP5 PUSH2 0x57C JUMP JUMPDEST SWAP7 SWAP6 POP POP POP POP POP POP JUMP JUMPDEST PUSH1 0x40 MLOAD DUP2 DUP2 ADD PUSH1 0x1 PUSH1 0x40 PUSH1 0x2 EXP SUB DUP2 GT DUP3 DUP3 LT OR ISZERO PUSH2 0x651 JUMPI PUSH1 0x0 DUP1 REVERT JUMPDEST PUSH1 0x40 MSTORE SWAP2 SWAP1 POP JUMP JUMPDEST PUSH1 0x0 PUSH1 0x1 PUSH1 0x40 PUSH1 0x2 EXP SUB DUP3 GT ISZERO PUSH2 0x66F JUMPI PUSH1 0x0 DUP1 REVERT JUMPDEST POP PUSH1 0x20 PUSH1 0x1F SWAP2 SWAP1 SWAP2 ADD PUSH1 0x1F NOT AND ADD SWAP1 JUMP JUMPDEST MLOAD SWAP1 JUMP JUMPDEST PUSH1 0x1 PUSH1 0xA0 PUSH1 0x2 EXP SUB AND SWAP1 JUMP JUMPDEST PUSH1 0xFF AND SWAP1 JUMP JUMPDEST DUP3 DUP2 DUP4 CALLDATACOPY POP PUSH1 0x0 SWAP2 ADD MSTORE JUMP JUMPDEST PUSH1 0x0 JUMPDEST DUP4 DUP2 LT ISZERO PUSH2 0x6BD JUMPI DUP2 DUP2 ADD MLOAD DUP4 DUP3 ADD MSTORE PUSH1 0x20 ADD PUSH2 0x6A5 JUMP JUMPDEST DUP4 DUP2 GT ISZERO PUSH2 0x6CC JUMPI PUSH1 0x0 DUP5 DUP5 ADD MSTORE JUMPDEST POP POP POP POP JUMP JUMPDEST PUSH1 0x1F ADD PUSH1 0x1F NOT AND SWAP1 JUMP STOP 0x4c PUSH6 0x6E677468206D PUSH22 0x73742062652067726561746572207468616E206F7220 PUSH6 0xA265627A7A72 ADDRESS PC KECCAK256 EXTCODESIZE SWAP7 EQ CALLVALUE 0x46 SHR EQ POP PUSH28 0x38AB3E987AB9CFD432E720F34ADA487C55F558E63E81586C65787065 PUSH19 0x696D656E74616CF50037000000000000000000 "
			}
		}
	},
	"sourceTreeHashHex": "0x99ef96e59f9381c3901828b829bc5aa810eba06891743f2456987f42dcfac82f",
	"compiler": {
		"name": "solc",
		"version": "0.4.24",
		"settings": {
			"optimizer": {
				"enabled": true,
				"runs": 0
			},
			"outputSelection": {
				"*": {
					"*": [
						"abi",
						"evm.bytecode.object",
						"evm.bytecode.sourceMap",
						"evm.deployedBytecode.object",
						"evm.deployedBytecode.sourceMap"
					]
				}
			}
		}
	}
}